{
  "_format": "hh-sol-artifact-1",
  "contractName": "HealthcareLite",
  "sourceName": "contracts/Healthcare.sol",
  "abi": [
    {
      "inputs": [],
      "stateMutability": "nonpayable",
      "type": "constructor"
    },
    {
      "anonymous": false,
      "inputs": [
        {
          "indexed": false,
          "internalType": "address",
          "name": "newAdmin",
          "type": "address"
        }
      ],
      "name": "AdminUpdated",
      "type": "event"
    },
    {
      "anonymous": false,
      "inputs": [
        {
          "indexed": false,
          "internalType": "uint256",
          "name": "id",
          "type": "uint256"
        },
        {
          "indexed": false,
          "internalType": "uint256",
          "name": "patientId",
          "type": "uint256"
        },
        {
          "indexed": false,
          "internalType": "uint256",
          "name": "doctorId",
          "type": "uint256"
        },
        {
          "indexed": false,
          "internalType": "uint256",
          "name": "startAt",
          "type": "uint256"
        }
      ],
      "name": "AppointmentBooked",
      "type": "event"
    },
    {
      "anonymous": false,
      "inputs": [
        {
          "indexed": false,
          "internalType": "uint256",
          "name": "id",
          "type": "uint256"
        }
      ],
      "name": "AppointmentCompleted",
      "type": "event"
    },
    {
      "anonymous": false,
      "inputs": [
        {
          "indexed": false,
          "internalType": "uint256",
          "name": "id",
          "type": "uint256"
        },
        {
          "indexed": false,
          "internalType": "bool",
          "name": "approved",
          "type": "bool"
        }
      ],
      "name": "DoctorApproved",
      "type": "event"
    },
    {
      "anonymous": false,
      "inputs": [
        {
          "indexed": false,
          "internalType": "uint256",
          "name": "id",
          "type": "uint256"
        },
        {
          "indexed": false,
          "internalType": "address",
          "name": "account",
          "type": "address"
        }
      ],
      "name": "DoctorRegistered",
      "type": "event"
    },
    {
      "anonymous": false,
      "inputs": [
        {
          "indexed": false,
          "internalType": "uint256",
          "name": "doctorReg",
          "type": "uint256"
        },
        {
          "indexed": false,
          "internalType": "uint256",
          "name": "patientReg",
          "type": "uint256"
        },
        {
          "indexed": false,
          "internalType": "uint256",
          "name": "apptFee",
          "type": "uint256"
        }
      ],
      "name": "FeesUpdated",
      "type": "event"
    },
    {
      "anonymous": false,
      "inputs": [
        {
          "indexed": false,
          "internalType": "uint256",
          "name": "id",
          "type": "uint256"
        },
        {
          "indexed": false,
          "internalType": "bool",
          "name": "active",
          "type": "bool"
        }
      ],
      "name": "MedicineActive",
      "type": "event"
    },
    {
      "anonymous": false,
      "inputs": [
        {
          "indexed": false,
          "internalType": "uint256",
          "name": "id",
          "type": "uint256"
        },
        {
          "indexed": false,
          "internalType": "uint256",
          "name": "priceWei",
          "type": "uint256"
        },
        {
          "indexed": false,
          "internalType": "uint256",
          "name": "stock",
          "type": "uint256"
        }
      ],
      "name": "MedicineAdded",
      "type": "event"
    },
    {
      "anonymous": false,
      "inputs": [
        {
          "indexed": false,
          "internalType": "uint256",
          "name": "patientId",
          "type": "uint256"
        },
        {
          "indexed": false,
          "internalType": "uint256",
          "name": "medicineId",
          "type": "uint256"
        },
        {
          "indexed": false,
          "internalType": "uint256",
          "name": "qty",
          "type": "uint256"
        },
        {
          "indexed": false,
          "internalType": "uint256",
          "name": "paidWei",
          "type": "uint256"
        }
      ],
      "name": "MedicineBought",
      "type": "event"
    },
    {
      "anonymous": false,
      "inputs": [
        {
          "indexed": false,
          "internalType": "uint256",
          "name": "id",
          "type": "uint256"
        },
        {
          "indexed": false,
          "internalType": "uint256",
          "name": "medicineId",
          "type": "uint256"
        },
        {
          "indexed": false,
          "internalType": "uint256",
          "name": "patientId",
          "type": "uint256"
        },
        {
          "indexed": false,
          "internalType": "uint256",
          "name": "doctorId",
          "type": "uint256"
        }
      ],
      "name": "MedicinePrescribed",
      "type": "event"
    },
    {
      "anonymous": false,
      "inputs": [
        {
          "indexed": false,
          "internalType": "uint256",
          "name": "id",
          "type": "uint256"
        },
        {
          "indexed": false,
          "internalType": "uint256",
          "name": "priceWei",
          "type": "uint256"
        }
      ],
      "name": "MedicinePrice",
      "type": "event"
    },
    {
      "anonymous": false,
      "inputs": [
        {
          "indexed": false,
          "internalType": "uint256",
          "name": "id",
          "type": "uint256"
        },
        {
          "indexed": false,
          "internalType": "uint256",
          "name": "stock",
          "type": "uint256"
        }
      ],
      "name": "MedicineStock",
      "type": "event"
    },
    {
      "anonymous": false,
      "inputs": [
        {
          "indexed": false,
          "internalType": "uint256",
          "name": "id",
          "type": "uint256"
        },
        {
          "indexed": false,
          "internalType": "address",
          "name": "account",
          "type": "address"
        }
      ],
      "name": "PatientRegistered",
      "type": "event"
    },
    {
      "inputs": [
        {
          "internalType": "string",
          "name": "ipfs",
          "type": "string"
        },
        {
          "internalType": "uint256",
          "name": "priceWei",
          "type": "uint256"
        },
        {
          "internalType": "uint256",
          "name": "stock",
          "type": "uint256"
        }
      ],
      "name": "addMedicine",
      "outputs": [],
      "stateMutability": "nonpayable",
      "type": "function"
    },
    {
      "inputs": [],
      "name": "admin",
      "outputs": [
        {
          "internalType": "address payable",
          "name": "",
          "type": "address"
        }
      ],
      "stateMutability": "view",
      "type": "function"
    },
    {
      "inputs": [],
      "name": "appointmentCount",
      "outputs": [
        {
          "internalType": "uint256",
          "name": "",
          "type": "uint256"
        }
      ],
      "stateMutability": "view",
      "type": "function"
    },
    {
      "inputs": [],
      "name": "appointmentFeeWei",
      "outputs": [
        {
          "internalType": "uint256",
          "name": "",
          "type": "uint256"
        }
      ],
      "stateMutability": "view",
      "type": "function"
    },
    {
      "inputs": [
        {
          "internalType": "uint256",
          "name": "",
          "type": "uint256"
        }
      ],
      "name": "appointments",
      "outputs": [
        {
          "internalType": "uint256",
          "name": "id",
          "type": "uint256"
        },
        {
          "internalType": "uint256",
          "name": "patientId",
          "type": "uint256"
        },
        {
          "internalType": "uint256",
          "name": "doctorId",
          "type": "uint256"
        },
        {
          "internalType": "uint256",
          "name": "startAt",
          "type": "uint256"
        },
        {
          "internalType": "bool",
          "name": "open",
          "type": "bool"
        }
      ],
      "stateMutability": "view",
      "type": "function"
    },
    {
      "inputs": [
        {
          "internalType": "uint256",
          "name": "id",
          "type": "uint256"
        },
        {
          "internalType": "bool",
          "name": "value",
          "type": "bool"
        }
      ],
      "name": "approveDoctor",
      "outputs": [],
      "stateMutability": "nonpayable",
      "type": "function"
    },
    {
      "inputs": [
        {
          "internalType": "uint256",
          "name": "patientId",
          "type": "uint256"
        },
        {
          "internalType": "uint256",
          "name": "doctorId",
          "type": "uint256"
        },
        {
          "internalType": "uint256",
          "name": "startAt",
          "type": "uint256"
        }
      ],
      "name": "bookAppointment",
      "outputs": [],
      "stateMutability": "payable",
      "type": "function"
    },
    {
      "inputs": [
        {
          "internalType": "uint256",
          "name": "patientId",
          "type": "uint256"
        },
        {
          "internalType": "uint256",
          "name": "medicineId",
          "type": "uint256"
        },
        {
          "internalType": "uint256",
          "name": "qty",
          "type": "uint256"
        }
      ],
      "name": "buyMedicine",
      "outputs": [],
      "stateMutability": "payable",
      "type": "function"
    },
    {
      "inputs": [
        {
          "internalType": "uint256",
          "name": "appointmentId",
          "type": "uint256"
        }
      ],
      "name": "completeAppointment",
      "outputs": [],
      "stateMutability": "nonpayable",
      "type": "function"
    },
    {
      "inputs": [],
      "name": "doctorCount",
      "outputs": [
        {
          "internalType": "uint256",
          "name": "",
          "type": "uint256"
        }
      ],
      "stateMutability": "view",
      "type": "function"
    },
    {
      "inputs": [
        {
          "internalType": "address",
          "name": "",
          "type": "address"
        }
      ],
      "name": "doctorIdByAddress",
      "outputs": [
        {
          "internalType": "uint256",
          "name": "",
          "type": "uint256"
        }
      ],
      "stateMutability": "view",
      "type": "function"
    },
    {
      "inputs": [],
      "name": "doctorRegFeeWei",
      "outputs": [
        {
          "internalType": "uint256",
          "name": "",
          "type": "uint256"
        }
      ],
      "stateMutability": "view",
      "type": "function"
    },
    {
      "inputs": [
        {
          "internalType": "uint256",
          "name": "",
          "type": "uint256"
        }
      ],
      "name": "doctors",
      "outputs": [
        {
          "internalType": "uint256",
          "name": "id",
          "type": "uint256"
        },
        {
          "internalType": "string",
          "name": "ipfs",
          "type": "string"
        },
        {
          "internalType": "address",
          "name": "account",
          "type": "address"
        },
        {
          "internalType": "bool",
          "name": "approved",
          "type": "bool"
        },
        {
          "internalType": "uint256",
          "name": "appointments",
          "type": "uint256"
        },
        {
          "internalType": "uint256",
          "name": "successes",
          "type": "uint256"
        }
      ],
      "stateMutability": "view",
      "type": "function"
    },
    {
      "inputs": [
        {
          "internalType": "uint256",
          "name": "doctorId",
          "type": "uint256"
        }
      ],
      "name": "getAppointmentsByDoctor",
      "outputs": [
        {
          "components": [
            {
              "internalType": "uint256",
              "name": "id",
              "type": "uint256"
            },
            {
              "internalType": "uint256",
              "name": "patientId",
              "type": "uint256"
            },
            {
              "internalType": "uint256",
              "name": "doctorId",
              "type": "uint256"
            },
            {
              "internalType": "uint256",
              "name": "startAt",
              "type": "uint256"
            },
            {
              "internalType": "bool",
              "name": "open",
              "type": "bool"
            }
          ],
          "internalType": "struct HealthcareLite.Appointment[]",
          "name": "",
          "type": "tuple[]"
        }
      ],
      "stateMutability": "view",
      "type": "function"
    },
    {
      "inputs": [
        {
          "internalType": "uint256",
          "name": "patientId",
          "type": "uint256"
        }
      ],
      "name": "getAppointmentsByPatient",
      "outputs": [
        {
          "components": [
            {
              "internalType": "uint256",
              "name": "id",
              "type": "uint256"
            },
            {
              "internalType": "uint256",
              "name": "patientId",
              "type": "uint256"
            },
            {
              "internalType": "uint256",
              "name": "doctorId",
              "type": "uint256"
            },
            {
              "internalType": "uint256",
              "name": "startAt",
              "type": "uint256"
            },
            {
              "internalType": "bool",
              "name": "open",
              "type": "bool"
            }
          ],
          "internalType": "struct HealthcareLite.Appointment[]",
          "name": "",
          "type": "tuple[]"
        }
      ],
      "stateMutability": "view",
      "type": "function"
    },
    {
      "inputs": [
        {
          "internalType": "address",
          "name": "account",
          "type": "address"
        }
      ],
      "name": "getDoctorId",
      "outputs": [
        {
          "internalType": "uint256",
          "name": "",
          "type": "uint256"
        }
      ],
      "stateMutability": "view",
      "type": "function"
    },
    {
      "inputs": [
        {
          "internalType": "address",
          "name": "account",
          "type": "address"
        }
      ],
      "name": "getPatientId",
      "outputs": [
        {
          "internalType": "uint256",
          "name": "",
          "type": "uint256"
        }
      ],
      "stateMutability": "view",
      "type": "function"
    },
    {
      "inputs": [],
      "name": "medicineCount",
      "outputs": [
        {
          "internalType": "uint256",
          "name": "",
          "type": "uint256"
        }
      ],
      "stateMutability": "view",
      "type": "function"
    },
    {
      "inputs": [
        {
          "internalType": "uint256",
          "name": "",
          "type": "uint256"
        }
      ],
      "name": "medicines",
      "outputs": [
        {
          "internalType": "uint256",
          "name": "id",
          "type": "uint256"
        },
        {
          "internalType": "string",
          "name": "ipfs",
          "type": "string"
        },
        {
          "internalType": "uint256",
          "name": "priceWei",
          "type": "uint256"
        },
        {
          "internalType": "uint256",
          "name": "stock",
          "type": "uint256"
        },
        {
          "internalType": "bool",
          "name": "active",
          "type": "bool"
        }
      ],
      "stateMutability": "view",
      "type": "function"
    },
    {
      "inputs": [],
      "name": "patientCount",
      "outputs": [
        {
          "internalType": "uint256",
          "name": "",
          "type": "uint256"
        }
      ],
      "stateMutability": "view",
      "type": "function"
    },
    {
      "inputs": [
        {
          "internalType": "address",
          "name": "",
          "type": "address"
        }
      ],
      "name": "patientIdByAddress",
      "outputs": [
        {
          "internalType": "uint256",
          "name": "",
          "type": "uint256"
        }
      ],
      "stateMutability": "view",
      "type": "function"
    },
    {
      "inputs": [],
      "name": "patientRegFeeWei",
      "outputs": [
        {
          "internalType": "uint256",
          "name": "",
          "type": "uint256"
        }
      ],
      "stateMutability": "view",
      "type": "function"
    },
    {
      "inputs": [
        {
          "internalType": "uint256",
          "name": "",
          "type": "uint256"
        }
      ],
      "name": "patients",
      "outputs": [
        {
          "internalType": "uint256",
          "name": "id",
          "type": "uint256"
        },
        {
          "internalType": "string",
          "name": "ipfs",
          "type": "string"
        },
        {
          "internalType": "address",
          "name": "account",
          "type": "address"
        }
      ],
      "stateMutability": "view",
      "type": "function"
    },
    {
      "inputs": [
        {
          "internalType": "uint256",
          "name": "patientId",
          "type": "uint256"
        },
        {
          "internalType": "uint256",
          "name": "medicineId",
          "type": "uint256"
        }
      ],
      "name": "prescribe",
      "outputs": [],
      "stateMutability": "nonpayable",
      "type": "function"
    },
    {
      "inputs": [],
      "name": "prescriptionCount",
      "outputs": [
        {
          "internalType": "uint256",
          "name": "",
          "type": "uint256"
        }
      ],
      "stateMutability": "view",
      "type": "function"
    },
    {
      "inputs": [
        {
          "internalType": "uint256",
          "name": "",
          "type": "uint256"
        }
      ],
      "name": "prescriptions",
      "outputs": [
        {
          "internalType": "uint256",
          "name": "id",
          "type": "uint256"
        },
        {
          "internalType": "uint256",
          "name": "medicineId",
          "type": "uint256"
        },
        {
          "internalType": "uint256",
          "name": "patientId",
          "type": "uint256"
        },
        {
          "internalType": "uint256",
          "name": "doctorId",
          "type": "uint256"
        },
        {
          "internalType": "uint256",
          "name": "date",
          "type": "uint256"
        }
      ],
      "stateMutability": "view",
      "type": "function"
    },
    {
      "inputs": [
        {
          "internalType": "string",
          "name": "ipfs",
          "type": "string"
        },
        {
          "internalType": "address",
          "name": "doctorAddress",
          "type": "address"
        }
      ],
      "name": "registerDoctor",
      "outputs": [],
      "stateMutability": "payable",
      "type": "function"
    },
    {
      "inputs": [
        {
          "internalType": "string",
          "name": "ipfs",
          "type": "string"
        },
        {
          "internalType": "address",
          "name": "patientAddress",
          "type": "address"
        }
      ],
      "name": "registerPatient",
      "outputs": [],
      "stateMutability": "payable",
      "type": "function"
    },
    {
      "inputs": [
        {
          "internalType": "address payable",
          "name": "_new",
          "type": "address"
        }
      ],
      "name": "setAdmin",
      "outputs": [],
      "stateMutability": "nonpayable",
      "type": "function"
    },
    {
      "inputs": [
        {
          "internalType": "uint256",
          "name": "_doctorRegFeeWei",
          "type": "uint256"
        },
        {
          "internalType": "uint256",
          "name": "_patientRegFeeWei",
          "type": "uint256"
        },
        {
          "internalType": "uint256",
          "name": "_appointmentFeeWei",
          "type": "uint256"
        }
      ],
      "name": "setFees",
      "outputs": [],
      "stateMutability": "nonpayable",
      "type": "function"
    },
    {
      "inputs": [
        {
          "internalType": "uint256",
          "name": "id",
          "type": "uint256"
        },
        {
          "internalType": "uint256",
          "name": "priceWei",
          "type": "uint256"
        }
      ],
      "name": "setMedicinePrice",
      "outputs": [],
      "stateMutability": "nonpayable",
      "type": "function"
    },
    {
      "inputs": [
        {
          "internalType": "uint256",
          "name": "id",
          "type": "uint256"
        },
        {
          "internalType": "uint256",
          "name": "stock",
          "type": "uint256"
        }
      ],
      "name": "setMedicineStock",
      "outputs": [],
      "stateMutability": "nonpayable",
      "type": "function"
    },
    {
      "inputs": [
        {
          "internalType": "uint256",
          "name": "id",
          "type": "uint256"
        }
      ],
      "name": "toggleMedicine",
      "outputs": [],
      "stateMutability": "nonpayable",
      "type": "function"
    }
  ],
  "bytecode": "0x60806040526608e1bc9bf0400060015565e35fa931a0006002556608e1bc9bf0400060035534801561003057600080fd5b50336000806101000a81548173ffffffffffffffffffffffffffffffffffffffff021916908373ffffffffffffffffffffffffffffffffffffffff160217905550614757806100806000396000f3fe6080604052600436106101ee5760003560e01c806378522bc41161010d578063b99be2a8116100a0578063e508c9571161006f578063e508c95714610724578063eebc3fb21461074d578063eecd33d414610778578063f69c6995146107b5578063f851a440146107de576101ee565b8063b99be2a814610652578063b9ee69201461067d578063c85e766d146106ba578063cec10c11146106fb576101ee565b8063a0303c41116100dc578063a0303c41146105b7578063a23e8590146105e2578063ab622786146105fe578063b655849814610627576101ee565b806378522bc4146104e5578063875b002714610510578063897f272c1461053b57806393119a8314610578576101ee565b806337cbfb0e116101855780635165e394116101545780635165e3941461040057806357bcf3c01461043d5780636efb1b841461047a578063704b6c02146104bc576101ee565b806337cbfb0e146103655780634095b117146103905780634c51eb14146103b95780634dafd490146103d5576101ee565b80632512a365116101c15780632512a365146102a25780632604fa7b146102be57806331dfc91b146102fb57806334117e171461033c576101ee565b806307bf751f146101f357806312dc90131461021c57806313eca4051461025d578063146e812c14610279575b600080fd5b3480156101ff57600080fd5b5061021a6004803603810190610215919061301b565b610809565b005b34801561022857600080fd5b50610243600480360381019061023e919061305b565b610953565b6040516102549594939291906130a6565b60405180910390f35b610277600480360381019061027291906130f9565b610996565b005b34801561028557600080fd5b506102a0600480360381019061029b919061314c565b610e01565b005b6102bc60048036038101906102b7919061324f565b6110a4565b005b3480156102ca57600080fd5b506102e560048036038101906102e091906132af565b611533565b6040516102f291906132dc565b60405180910390f35b34801561030757600080fd5b50610322600480360381019061031d919061305b565b61157c565b6040516103339594939291906132f7565b60405180910390f35b34801561034857600080fd5b50610363600480360381019061035e919061314c565b6115b2565b005b34801561037157600080fd5b5061037a6116e9565b60405161038791906132dc565b60405180910390f35b34801561039c57600080fd5b506103b760048036038101906103b2919061305b565b6116ef565b005b6103d360048036038101906103ce91906130f9565b61195c565b005b3480156103e157600080fd5b506103ea611ccf565b6040516103f791906132dc565b60405180910390f35b34801561040c57600080fd5b506104276004803603810190610422919061305b565b611cd5565b604051610434919061347f565b60405180910390f35b34801561044957600080fd5b50610464600480360381019061045f91906132af565b611e59565b60405161047191906132dc565b60405180910390f35b34801561048657600080fd5b506104a1600480360381019061049c919061305b565b611e71565b6040516104b396959493929190613540565b60405180910390f35b3480156104c857600080fd5b506104e360048036038101906104de91906135e6565b611f62565b005b3480156104f157600080fd5b506104fa6120d9565b60405161050791906132dc565b60405180910390f35b34801561051c57600080fd5b506105256120df565b60405161053291906132dc565b60405180910390f35b34801561054757600080fd5b50610562600480360381019061055d91906132af565b6120e5565b60405161056f91906132dc565b60405180910390f35b34801561058457600080fd5b5061059f600480360381019061059a919061305b565b6120fd565b6040516105ae93929190613613565b60405180910390f35b3480156105c357600080fd5b506105cc6121cf565b6040516105d991906132dc565b60405180910390f35b6105fc60048036038101906105f7919061324f565b6121d5565b005b34801561060a57600080fd5b506106256004803603810190610620919061305b565b6126af565b005b34801561063357600080fd5b5061063c61283f565b60405161064991906132dc565b60405180910390f35b34801561065e57600080fd5b50610667612845565b60405161067491906132dc565b60405180910390f35b34801561068957600080fd5b506106a4600480360381019061069f91906132af565b61284b565b6040516106b191906132dc565b60405180910390f35b3480156106c657600080fd5b506106e160048036038101906106dc919061305b565b612894565b6040516106f2959493929190613651565b60405180910390f35b34801561070757600080fd5b50610722600480360381019061071d91906130f9565b61295f565b005b34801561073057600080fd5b5061074b600480360381019061074691906136ab565b612a42565b005b34801561075957600080fd5b50610762612c4a565b60405161076f91906132dc565b60405180910390f35b34801561078457600080fd5b5061079f600480360381019061079a919061305b565b612c50565b6040516107ac919061347f565b60405180910390f35b3480156107c157600080fd5b506107dc60048036038101906107d7919061314c565b612dd4565b005b3480156107ea57600080fd5b506107f3612f4e565b604051610800919061372e565b60405180910390f35b60008054906101000a900473ffffffffffffffffffffffffffffffffffffffff1673ffffffffffffffffffffffffffffffffffffffff163373ffffffffffffffffffffffffffffffffffffffff1614610897576040517f08c379a000000000000000000000000000000000000000000000000000000000815260040161088e90613795565b60405180910390fd5b6000821180156108a957506004548211155b6108e8576040517f08c379a00000000000000000000000000000000000000000000000000000000081526004016108df90613801565b60405180910390fd5b806009600084815260200190815260200160002060020160146101000a81548160ff0219169083151502179055507fbb4c91f31cb51718cccdf9c6a732a45ee18acb9c6505335dcc63a90794a3abff8282604051610947929190613821565b60405180910390a15050565b600c6020528060005260406000206000915090508060000154908060010154908060020154908060030154908060040160009054906101000a900460ff16905085565b601060009054906101000a900460ff16156109e6576040517f08c379a00000000000000000000000000000000000000000000000000000000081526004016109dd90613896565b60405180910390fd5b6001601060006101000a81548160ff02191690831515021790555082600f60003373ffffffffffffffffffffffffffffffffffffffff1673ffffffffffffffffffffffffffffffffffffffff16815260200190815260200160002054148015610a50575060008314155b610a8f576040517f08c379a0000000000000000000000000000000000000000000000000000000008152600401610a8690613902565b60405180910390fd5b600082118015610aa157506004548211155b610ae0576040517f08c379a0000000000000000000000000000000000000000000000000000000008152600401610ad790613801565b60405180910390fd5b6009600083815260200190815260200160002060020160149054906101000a900460ff16610b43576040517f08c379a0000000000000000000000000000000000000000000000000000000008152600401610b3a9061396e565b60405180910390fd5b6003543414610b87576040517f08c379a0000000000000000000000000000000000000000000000000000000008152600401610b7e906139da565b60405180910390fd5b428111610bc9576040517f08c379a0000000000000000000000000000000000000000000000000000000008152600401610bc090613a46565b60405180910390fd5b60076000815480929190610bdc90613a95565b91905055506040518060a00160405280600754815260200184815260200183815260200182815260200160011515815250600c600060075481526020019081526020016000206000820151816000015560208201518160010155604082015181600201556060820151816003015560808201518160040160006101000a81548160ff0219169083151502179055509050506000600a34610c7c9190613b0c565b905060008134610c8c9190613b3d565b905060008054906101000a900473ffffffffffffffffffffffffffffffffffffffff1673ffffffffffffffffffffffffffffffffffffffff166108fc839081150290604051600060405180830381858888f19350505050158015610cf4573d6000803e3d6000fd5b506009600085815260200190815260200160002060020160009054906101000a900473ffffffffffffffffffffffffffffffffffffffff1673ffffffffffffffffffffffffffffffffffffffff166108fc829081150290604051600060405180830381858888f19350505050158015610d71573d6000803e3d6000fd5b506001600960008681526020019081526020016000206003016000828254610d999190613b71565b925050819055507f1185ee7d7601fb1f9022de9897087ccb38b19f8081baea426dba6da04823aa24600754868686604051610dd79493929190613ba5565b60405180910390a150506000601060006101000a81548160ff021916908315150217905550505050565b6000600e60003373ffffffffffffffffffffffffffffffffffffffff1673ffffffffffffffffffffffffffffffffffffffff16815260200190815260200160002054905060008114158015610e7657506009600082815260200190815260200160002060020160149054906101000a900460ff165b610eb5576040517f08c379a0000000000000000000000000000000000000000000000000000000008152600401610eac90613c36565b60405180910390fd5b600083118015610ec757506005548311155b610f06576040517f08c379a0000000000000000000000000000000000000000000000000000000008152600401610efd90613ca2565b60405180910390fd5b600082118015610f1857506006548211155b610f57576040517f08c379a0000000000000000000000000000000000000000000000000000000008152600401610f4e90613d0e565b60405180910390fd5b60086000815480929190610f6a90613a95565b91905055506040518060a001604052806008548152602001838152602001848152602001600e60003373ffffffffffffffffffffffffffffffffffffffff1673ffffffffffffffffffffffffffffffffffffffff16815260200190815260200160002054815260200142815250600d6000600854815260200190815260200160002060008201518160000155602082015181600101556040820151816002015560608201518160030155608082015181600401559050507f398a743fb4f7a69fd21dd4488cc639fb332b3e919f58fb25990c6f21d0025c496008548385600e60003373ffffffffffffffffffffffffffffffffffffffff1673ffffffffffffffffffffffffffffffffffffffff168152602001908152602001600020546040516110979493929190613ba5565b60405180910390a1505050565b601060009054906101000a900460ff16156110f4576040517f08c379a00000000000000000000000000000000000000000000000000000000081526004016110eb90613896565b60405180910390fd5b6001601060006101000a81548160ff02191690831515021790555060008073ffffffffffffffffffffffffffffffffffffffff168273ffffffffffffffffffffffffffffffffffffffff161461121d5760008054906101000a900473ffffffffffffffffffffffffffffffffffffffff1673ffffffffffffffffffffffffffffffffffffffff163373ffffffffffffffffffffffffffffffffffffffff16146111d2576040517f08c379a00000000000000000000000000000000000000000000000000000000081526004016111c990613795565b60405180910390fd5b60003414611215576040517f08c379a000000000000000000000000000000000000000000000000000000000815260040161120c90613d7a565b60405180910390fd5b819050611265565b6002543414611261576040517f08c379a0000000000000000000000000000000000000000000000000000000008152600401611258906139da565b60405180910390fd5b3390505b6000600f60008373ffffffffffffffffffffffffffffffffffffffff1673ffffffffffffffffffffffffffffffffffffffff16815260200190815260200160002054146112e7576040517f08c379a00000000000000000000000000000000000000000000000000000000081526004016112de90613de6565b60405180910390fd5b600560008154809291906112fa90613a95565b91905055506040518060600160405280600554815260200185858080601f016020809104026020016040519081016040528093929190818152602001838380828437600081840152601f19601f8201169050808301925050505050505081526020018273ffffffffffffffffffffffffffffffffffffffff16815250600a600060055481526020019081526020016000206000820151816000015560208201518160010190816113aa9190614041565b5060408201518160020160006101000a81548173ffffffffffffffffffffffffffffffffffffffff021916908373ffffffffffffffffffffffffffffffffffffffff160217905550905050600554600f60008373ffffffffffffffffffffffffffffffffffffffff1673ffffffffffffffffffffffffffffffffffffffff16815260200190815260200160002081905550600073ffffffffffffffffffffffffffffffffffffffff168273ffffffffffffffffffffffffffffffffffffffff16036114d75760008054906101000a900473ffffffffffffffffffffffffffffffffffffffff1673ffffffffffffffffffffffffffffffffffffffff166108fc349081150290604051600060405180830381858888f193505050501580156114d5573d6000803e3d6000fd5b505b7f5eac531a816ac6546a4c3edbf9748745fe74cfd5806cd8fa8a4a01b71248bf846005548260405161150a929190614113565b60405180910390a1506000601060006101000a81548160ff021916908315150217905550505050565b6000600f60008373ffffffffffffffffffffffffffffffffffffffff1673ffffffffffffffffffffffffffffffffffffffff168152602001908152602001600020549050919050565b600d6020528060005260406000206000915090508060000154908060010154908060020154908060030154908060040154905085565b60008054906101000a900473ffffffffffffffffffffffffffffffffffffffff1673ffffffffffffffffffffffffffffffffffffffff163373ffffffffffffffffffffffffffffffffffffffff1614611640576040517f08c379a000000000000000000000000000000000000000000000000000000000815260040161163790613795565b60405180910390fd5b60008211801561165257506006548211155b611691576040517f08c379a000000000000000000000000000000000000000000000000000000000815260040161168890613d0e565b60405180910390fd5b80600b6000848152602001908152602001600020600301819055507f0b80431c59a6a703e557666220cf7874cff81d920963b044fe811145bdd72fca82826040516116dd92919061413c565b60405180910390a15050565b60015481565b6000600e60003373ffffffffffffffffffffffffffffffffffffffff1673ffffffffffffffffffffffffffffffffffffffff1681526020019081526020016000205403611771576040517f08c379a0000000000000000000000000000000000000000000000000000000008152600401611768906141b1565b60405180910390fd5b60008111801561178357506007548111155b6117c2576040517f08c379a00000000000000000000000000000000000000000000000000000000081526004016117b99061421d565b60405180910390fd5b6000600c600083815260200190815260200160002090508060040160009054906101000a900460ff1661182a576040517f08c379a000000000000000000000000000000000000000000000000000000000815260040161182190614289565b60405180910390fd5b3373ffffffffffffffffffffffffffffffffffffffff16600960008360020154815260200190815260200160002060020160009054906101000a900473ffffffffffffffffffffffffffffffffffffffff1673ffffffffffffffffffffffffffffffffffffffff16146118d2576040517f08c379a00000000000000000000000000000000000000000000000000000000081526004016118c9906142f5565b60405180910390fd5b60008160040160006101000a81548160ff02191690831515021790555060016009600083600201548152602001908152602001600020600401600082825461191a9190613b71565b925050819055507f96f7f7d72a3fe4b137949271ceab16ab2121be2faeda69bb82794730701668ca8260405161195091906132dc565b60405180910390a15050565b601060009054906101000a900460ff16156119ac576040517f08c379a00000000000000000000000000000000000000000000000000000000081526004016119a390613896565b60405180910390fd5b6001601060006101000a81548160ff02191690831515021790555082600f60003373ffffffffffffffffffffffffffffffffffffffff1673ffffffffffffffffffffffffffffffffffffffff16815260200190815260200160002054148015611a16575060008314155b611a55576040517f08c379a0000000000000000000000000000000000000000000000000000000008152600401611a4c90613902565b60405180910390fd5b600082118015611a6757506006548211155b611aa6576040517f08c379a0000000000000000000000000000000000000000000000000000000008152600401611a9d90613d0e565b60405180910390fd5b60008111611ae9576040517f08c379a0000000000000000000000000000000000000000000000000000000008152600401611ae090614361565b60405180910390fd5b6000600b600084815260200190815260200160002090508060040160009054906101000a900460ff16611b51576040517f08c379a0000000000000000000000000000000000000000000000000000000008152600401611b48906143cd565b60405180910390fd5b8181600301541015611b98576040517f08c379a0000000000000000000000000000000000000000000000000000000008152600401611b8f90614439565b60405180910390fd5b6000828260020154611baa9190614459565b9050803414611bee576040517f08c379a0000000000000000000000000000000000000000000000000000000008152600401611be5906144e7565b60405180910390fd5b82826003016000828254611c029190613b3d565b9250508190555060008054906101000a900473ffffffffffffffffffffffffffffffffffffffff1673ffffffffffffffffffffffffffffffffffffffff166108fc349081150290604051600060405180830381858888f19350505050158015611c6f573d6000803e3d6000fd5b507f70beb154b5c28449b070f7fdeb892f3505af6af3f5b39701c28a03cecba26f3985858534604051611ca59493929190613ba5565b60405180910390a150506000601060006101000a81548160ff021916908315150217905550505050565b60065481565b6060600080600190505b6007548111611d275783600c60008381526020019081526020016000206001015403611d14578180611d1090613a95565b9250505b8080611d1f90613a95565b915050611cdf565b5060008167ffffffffffffffff811115611d4457611d43613e06565b5b604051908082528060200260200182016040528015611d7d57816020015b611d6a612f72565b815260200190600190039081611d625790505b509050600080600190505b6007548111611e4d5785600c60008381526020019081526020016000206001015403611e3a57600c60008281526020019081526020016000206040518060a0016040529081600082015481526020016001820154815260200160028201548152602001600382015481526020016004820160009054906101000a900460ff161515151581525050838380611e1b90613a95565b945081518110611e2e57611e2d614507565b5b60200260200101819052505b8080611e4590613a95565b915050611d88565b50819350505050919050565b600e6020528060005260406000206000915090505481565b6009602052806000526040600020600091509050806000015490806001018054611e9a90613e64565b80601f0160208091040260200160405190810160405280929190818152602001828054611ec690613e64565b8015611f135780601f10611ee857610100808354040283529160200191611f13565b820191906000526020600020905b815481529060010190602001808311611ef657829003601f168201915b5050505050908060020160009054906101000a900473ffffffffffffffffffffffffffffffffffffffff16908060020160149054906101000a900460ff16908060030154908060040154905086565b60008054906101000a900473ffffffffffffffffffffffffffffffffffffffff1673ffffffffffffffffffffffffffffffffffffffff163373ffffffffffffffffffffffffffffffffffffffff1614611ff0576040517f08c379a0000000000000000000000000000000000000000000000000000000008152600401611fe790613795565b60405180910390fd5b600073ffffffffffffffffffffffffffffffffffffffff168173ffffffffffffffffffffffffffffffffffffffff160361205f576040517f08c379a000000000000000000000000000000000000000000000000000000000815260040161205690614582565b60405180910390fd5b806000806101000a81548173ffffffffffffffffffffffffffffffffffffffff021916908373ffffffffffffffffffffffffffffffffffffffff1602179055507f54e4612788f90384e6843298d7854436f3a585b2c3831ab66abf1de63bfa6c2d816040516120ce91906145f7565b60405180910390a150565b60045481565b60025481565b600f6020528060005260406000206000915090505481565b600a60205280600052604060002060009150905080600001549080600101805461212690613e64565b80601f016020809104026020016040519081016040528092919081815260200182805461215290613e64565b801561219f5780601f106121745761010080835404028352916020019161219f565b820191906000526020600020905b81548152906001019060200180831161218257829003601f168201915b5050505050908060020160009054906101000a900473ffffffffffffffffffffffffffffffffffffffff16905083565b60055481565b601060009054906101000a900460ff1615612225576040517f08c379a000000000000000000000000000000000000000000000000000000000815260040161221c90613896565b60405180910390fd5b6001601060006101000a81548160ff02191690831515021790555060008073ffffffffffffffffffffffffffffffffffffffff168273ffffffffffffffffffffffffffffffffffffffff161461234e5760008054906101000a900473ffffffffffffffffffffffffffffffffffffffff1673ffffffffffffffffffffffffffffffffffffffff163373ffffffffffffffffffffffffffffffffffffffff1614612303576040517f08c379a00000000000000000000000000000000000000000000000000000000081526004016122fa90613795565b60405180910390fd5b60003414612346576040517f08c379a000000000000000000000000000000000000000000000000000000000815260040161233d90613d7a565b60405180910390fd5b819050612396565b6001543414612392576040517f08c379a0000000000000000000000000000000000000000000000000000000008152600401612389906139da565b60405180910390fd5b3390505b6000600e60008373ffffffffffffffffffffffffffffffffffffffff1673ffffffffffffffffffffffffffffffffffffffff1681526020019081526020016000205414612418576040517f08c379a000000000000000000000000000000000000000000000000000000000815260040161240f9061465e565b60405180910390fd5b6004600081548092919061242b90613a95565b91905055506040518060c00160405280600454815260200185858080601f016020809104026020016040519081016040528093929190818152602001838380828437600081840152601f19601f8201169050808301925050505050505081526020018273ffffffffffffffffffffffffffffffffffffffff1681526020016000151581526020016000815260200160008152506009600060045481526020019081526020016000206000820151816000015560208201518160010190816124f29190614041565b5060408201518160020160006101000a81548173ffffffffffffffffffffffffffffffffffffffff021916908373ffffffffffffffffffffffffffffffffffffffff16021790555060608201518160020160146101000a81548160ff0219169083151502179055506080820151816003015560a08201518160040155905050600454600e60008373ffffffffffffffffffffffffffffffffffffffff1673ffffffffffffffffffffffffffffffffffffffff16815260200190815260200160002081905550600073ffffffffffffffffffffffffffffffffffffffff168273ffffffffffffffffffffffffffffffffffffffff16036126535760008054906101000a900473ffffffffffffffffffffffffffffffffffffffff1673ffffffffffffffffffffffffffffffffffffffff166108fc349081150290604051600060405180830381858888f19350505050158015612651573d6000803e3d6000fd5b505b7f42c036e07d862e74381ffdc8cb61d4e0846b10e0dc32dc47fbbc0815eb4cec6a60045482604051612686929190614113565b60405180910390a1506000601060006101000a81548160ff021916908315150217905550505050565b60008054906101000a900473ffffffffffffffffffffffffffffffffffffffff1673ffffffffffffffffffffffffffffffffffffffff163373ffffffffffffffffffffffffffffffffffffffff161461273d576040517f08c379a000000000000000000000000000000000000000000000000000000000815260040161273490613795565b60405180910390fd5b60008111801561274f57506006548111155b61278e576040517f08c379a000000000000000000000000000000000000000000000000000000000815260040161278590613d0e565b60405180910390fd5b600b600082815260200190815260200160002060040160009054906101000a900460ff1615600b600083815260200190815260200160002060040160006101000a81548160ff0219169083151502179055507f6d6cf34d3f23c9c3323cf5bc1e14702df3e253372d7c566e39532d708e0b918381600b600084815260200190815260200160002060040160009054906101000a900460ff16604051612834929190613821565b60405180910390a150565b60085481565b60035481565b6000600e60008373ffffffffffffffffffffffffffffffffffffffff1673ffffffffffffffffffffffffffffffffffffffff168152602001908152602001600020549050919050565b600b6020528060005260406000206000915090508060000154908060010180546128bd90613e64565b80601f01602080910402602001604051908101604052809291908181526020018280546128e990613e64565b80156129365780601f1061290b57610100808354040283529160200191612936565b820191906000526020600020905b81548152906001019060200180831161291957829003601f168201915b5050505050908060020154908060030154908060040160009054906101000a900460ff16905085565b60008054906101000a900473ffffffffffffffffffffffffffffffffffffffff1673ffffffffffffffffffffffffffffffffffffffff163373ffffffffffffffffffffffffffffffffffffffff16146129ed576040517f08c379a00000000000000000000000000000000000000000000000000000000081526004016129e490613795565b60405180910390fd5b8260018190555081600281905550806003819055507fcf8a1e1d5f09cf3c97dbb653cd9a4d7aace9292fbc1bb8211febf2d400febbdd838383604051612a359392919061467e565b60405180910390a1505050565b60008054906101000a900473ffffffffffffffffffffffffffffffffffffffff1673ffffffffffffffffffffffffffffffffffffffff163373ffffffffffffffffffffffffffffffffffffffff1614612ad0576040517f08c379a0000000000000000000000000000000000000000000000000000000008152600401612ac790613795565b60405180910390fd5b60008211612b13576040517f08c379a0000000000000000000000000000000000000000000000000000000008152600401612b0a90614701565b60405180910390fd5b60066000815480929190612b2690613a95565b91905055506040518060a00160405280600654815260200185858080601f016020809104026020016040519081016040528093929190818152602001838380828437600081840152601f19601f82011690508083019250505050505050815260200183815260200182815260200160011515815250600b60006006548152602001908152602001600020600082015181600001556020820151816001019081612bcf9190614041565b50604082015181600201556060820151816003015560808201518160040160006101000a81548160ff0219169083151502179055509050507f72666096ff561acf60bd9e20c03aec91692bc908eba4849d22a377e6a94188fd6006548383604051612c3c9392919061467e565b60405180910390a150505050565b60075481565b6060600080600190505b6007548111612ca25783600c60008381526020019081526020016000206002015403612c8f578180612c8b90613a95565b9250505b8080612c9a90613a95565b915050612c5a565b5060008167ffffffffffffffff811115612cbf57612cbe613e06565b5b604051908082528060200260200182016040528015612cf857816020015b612ce5612f72565b815260200190600190039081612cdd5790505b509050600080600190505b6007548111612dc85785600c60008381526020019081526020016000206002015403612db557600c60008281526020019081526020016000206040518060a0016040529081600082015481526020016001820154815260200160028201548152602001600382015481526020016004820160009054906101000a900460ff161515151581525050838380612d9690613a95565b945081518110612da957612da8614507565b5b60200260200101819052505b8080612dc090613a95565b915050612d03565b50819350505050919050565b60008054906101000a900473ffffffffffffffffffffffffffffffffffffffff1673ffffffffffffffffffffffffffffffffffffffff163373ffffffffffffffffffffffffffffffffffffffff1614612e62576040517f08c379a0000000000000000000000000000000000000000000000000000000008152600401612e5990613795565b60405180910390fd5b600082118015612e7457506006548211155b612eb3576040517f08c379a0000000000000000000000000000000000000000000000000000000008152600401612eaa90613d0e565b60405180910390fd5b60008111612ef6576040517f08c379a0000000000000000000000000000000000000000000000000000000008152600401612eed90614701565b60405180910390fd5b80600b6000848152602001908152602001600020600201819055507f511c0fd1eb8f631757ca75c369520f2381baf7a22f1a9c683a5724546d978f2f8282604051612f4292919061413c565b60405180910390a15050565b60008054906101000a900473ffffffffffffffffffffffffffffffffffffffff1681565b6040518060a00160405280600081526020016000815260200160008152602001600081526020016000151581525090565b600080fd5b600080fd5b6000819050919050565b612fc081612fad565b8114612fcb57600080fd5b50565b600081359050612fdd81612fb7565b92915050565b60008115159050919050565b612ff881612fe3565b811461300357600080fd5b50565b60008135905061301581612fef565b92915050565b6000806040838503121561303257613031612fa3565b5b600061304085828601612fce565b925050602061305185828601613006565b9150509250929050565b60006020828403121561307157613070612fa3565b5b600061307f84828501612fce565b91505092915050565b61309181612fad565b82525050565b6130a081612fe3565b82525050565b600060a0820190506130bb6000830188613088565b6130c86020830187613088565b6130d56040830186613088565b6130e26060830185613088565b6130ef6080830184613097565b9695505050505050565b60008060006060848603121561311257613111612fa3565b5b600061312086828701612fce565b935050602061313186828701612fce565b925050604061314286828701612fce565b9150509250925092565b6000806040838503121561316357613162612fa3565b5b600061317185828601612fce565b925050602061318285828601612fce565b9150509250929050565b600080fd5b600080fd5b600080fd5b60008083601f8401126131b1576131b061318c565b5b8235905067ffffffffffffffff8111156131ce576131cd613191565b5b6020830191508360018202830111156131ea576131e9613196565b5b9250929050565b600073ffffffffffffffffffffffffffffffffffffffff82169050919050565b600061321c826131f1565b9050919050565b61322c81613211565b811461323757600080fd5b50565b60008135905061324981613223565b92915050565b60008060006040848603121561326857613267612fa3565b5b600084013567ffffffffffffffff81111561328657613285612fa8565b5b6132928682870161319b565b935093505060206132a58682870161323a565b9150509250925092565b6000602082840312156132c5576132c4612fa3565b5b60006132d38482850161323a565b91505092915050565b60006020820190506132f16000830184613088565b92915050565b600060a08201905061330c6000830188613088565b6133196020830187613088565b6133266040830186613088565b6133336060830185613088565b6133406080830184613088565b9695505050505050565b600081519050919050565b600082825260208201905092915050565b6000819050602082019050919050565b61337f81612fad565b82525050565b61338e81612fe3565b82525050565b60a0820160008201516133aa6000850182613376565b5060208201516133bd6020850182613376565b5060408201516133d06040850182613376565b5060608201516133e36060850182613376565b5060808201516133f66080850182613385565b50505050565b60006134088383613394565b60a08301905092915050565b6000602082019050919050565b600061342c8261334a565b6134368185613355565b935061344183613366565b8060005b8381101561347257815161345988826133fc565b975061346483613414565b925050600181019050613445565b5085935050505092915050565b600060208201905081810360008301526134998184613421565b905092915050565b600081519050919050565b600082825260208201905092915050565b60005b838110156134db5780820151818401526020810190506134c0565b60008484015250505050565b6000601f19601f8301169050919050565b6000613503826134a1565b61350d81856134ac565b935061351d8185602086016134bd565b613526816134e7565b840191505092915050565b61353a81613211565b82525050565b600060c0820190506135556000830189613088565b818103602083015261356781886134f8565b90506135766040830187613531565b6135836060830186613097565b6135906080830185613088565b61359d60a0830184613088565b979650505050505050565b60006135b3826131f1565b9050919050565b6135c3816135a8565b81146135ce57600080fd5b50565b6000813590506135e0816135ba565b92915050565b6000602082840312156135fc576135fb612fa3565b5b600061360a848285016135d1565b91505092915050565b60006060820190506136286000830186613088565b818103602083015261363a81856134f8565b90506136496040830184613531565b949350505050565b600060a0820190506136666000830188613088565b818103602083015261367881876134f8565b90506136876040830186613088565b6136946060830185613088565b6136a16080830184613097565b9695505050505050565b600080600080606085870312156136c5576136c4612fa3565b5b600085013567ffffffffffffffff8111156136e3576136e2612fa8565b5b6136ef8782880161319b565b9450945050602061370287828801612fce565b925050604061371387828801612fce565b91505092959194509250565b613728816135a8565b82525050565b6000602082019050613743600083018461371f565b92915050565b7f41444d494e5f4f4e4c5900000000000000000000000000000000000000000000600082015250565b600061377f600a836134ac565b915061378a82613749565b602082019050919050565b600060208201905081810360008301526137ae81613772565b9050919050565b7f4e4f5f444f430000000000000000000000000000000000000000000000000000600082015250565b60006137eb6006836134ac565b91506137f6826137b5565b602082019050919050565b6000602082019050818103600083015261381a816137de565b9050919050565b60006040820190506138366000830185613088565b6138436020830184613097565b9392505050565b7f5245454e5452414e435900000000000000000000000000000000000000000000600082015250565b6000613880600a836134ac565b915061388b8261384a565b602082019050919050565b600060208201905081810360008301526138af81613873565b9050919050565b7f4e4f545f50415449454e54000000000000000000000000000000000000000000600082015250565b60006138ec600b836134ac565b91506138f7826138b6565b602082019050919050565b6000602082019050818103600083015261391b816138df565b9050919050565b7f444f435f4e4f545f415050524f56454400000000000000000000000000000000600082015250565b60006139586010836134ac565b915061396382613922565b602082019050919050565b600060208201905081810360008301526139878161394b565b9050919050565b7f4241445f46454500000000000000000000000000000000000000000000000000600082015250565b60006139c46007836134ac565b91506139cf8261398e565b602082019050919050565b600060208201905081810360008301526139f3816139b7565b9050919050565b7f504153545f54494d450000000000000000000000000000000000000000000000600082015250565b6000613a306009836134ac565b9150613a3b826139fa565b602082019050919050565b60006020820190508181036000830152613a5f81613a23565b9050919050565b7f4e487b7100000000000000000000000000000000000000000000000000000000600052601160045260246000fd5b6000613aa082612fad565b91507fffffffffffffffffffffffffffffffffffffffffffffffffffffffffffffffff8203613ad257613ad1613a66565b5b600182019050919050565b7f4e487b7100000000000000000000000000000000000000000000000000000000600052601260045260246000fd5b6000613b1782612fad565b9150613b2283612fad565b925082613b3257613b31613add565b5b828204905092915050565b6000613b4882612fad565b9150613b5383612fad565b9250828203905081811115613b6b57613b6a613a66565b5b92915050565b6000613b7c82612fad565b9150613b8783612fad565b9250828201905080821115613b9f57613b9e613a66565b5b92915050565b6000608082019050613bba6000830187613088565b613bc76020830186613088565b613bd46040830185613088565b613be16060830184613088565b95945050505050565b7f415050524f5645445f444f43544f525f4f4e4c59000000000000000000000000600082015250565b6000613c206014836134ac565b9150613c2b82613bea565b602082019050919050565b60006020820190508181036000830152613c4f81613c13565b9050919050565b7f4e4f5f5041540000000000000000000000000000000000000000000000000000600082015250565b6000613c8c6006836134ac565b9150613c9782613c56565b602082019050919050565b60006020820190508181036000830152613cbb81613c7f565b9050919050565b7f4e4f5f4d45440000000000000000000000000000000000000000000000000000600082015250565b6000613cf86006836134ac565b9150613d0382613cc2565b602082019050919050565b60006020820190508181036000830152613d2781613ceb565b9050919050565b7f4e4f5f4645455f464f525f41444d494e00000000000000000000000000000000600082015250565b6000613d646010836134ac565b9150613d6f82613d2e565b602082019050919050565b60006020820190508181036000830152613d9381613d57565b9050919050565b7f5041545f45584953545300000000000000000000000000000000000000000000600082015250565b6000613dd0600a836134ac565b9150613ddb82613d9a565b602082019050919050565b60006020820190508181036000830152613dff81613dc3565b9050919050565b7f4e487b7100000000000000000000000000000000000000000000000000000000600052604160045260246000fd5b7f4e487b7100000000000000000000000000000000000000000000000000000000600052602260045260246000fd5b60006002820490506001821680613e7c57607f821691505b602082108103613e8f57613e8e613e35565b5b50919050565b60008190508160005260206000209050919050565b60006020601f8301049050919050565b600082821b905092915050565b600060088302613ef77fffffffffffffffffffffffffffffffffffffffffffffffffffffffffffffffff82613eba565b613f018683613eba565b95508019841693508086168417925050509392505050565b6000819050919050565b6000613f3e613f39613f3484612fad565b613f19565b612fad565b9050919050565b6000819050919050565b613f5883613f23565b613f6c613f6482613f45565b848454613ec7565b825550505050565b600090565b613f81613f74565b613f8c818484613f4f565b505050565b5b81811015613fb057613fa5600082613f79565b600181019050613f92565b5050565b601f821115613ff557613fc681613e95565b613fcf84613eaa565b81016020851015613fde578190505b613ff2613fea85613eaa565b830182613f91565b50505b505050565b600082821c905092915050565b600061401860001984600802613ffa565b1980831691505092915050565b60006140318383614007565b9150826002028217905092915050565b61404a826134a1565b67ffffffffffffffff81111561406357614062613e06565b5b61406d8254613e64565b614078828285613fb4565b600060209050601f8311600181146140ab5760008415614099578287015190505b6140a38582614025565b86555061410b565b601f1984166140b986613e95565b60005b828110156140e1578489015182556001820191506020850194506020810190506140bc565b868310156140fe57848901516140fa601f891682614007565b8355505b6001600288020188555050505b505050505050565b60006040820190506141286000830185613088565b6141356020830184613531565b9392505050565b60006040820190506141516000830185613088565b61415e6020830184613088565b9392505050565b7f444f43544f525f4f4e4c59000000000000000000000000000000000000000000600082015250565b600061419b600b836134ac565b91506141a682614165565b602082019050919050565b600060208201905081810360008301526141ca8161418e565b9050919050565b7f4e4f5f4150505400000000000000000000000000000000000000000000000000600082015250565b60006142076007836134ac565b9150614212826141d1565b602082019050919050565b60006020820190508181036000830152614236816141fa565b9050919050565b7f434c4f5345440000000000000000000000000000000000000000000000000000600082015250565b60006142736006836134ac565b915061427e8261423d565b602082019050919050565b600060208201905081810360008301526142a281614266565b9050919050565b7f4e4f545f41535349474e45440000000000000000000000000000000000000000600082015250565b60006142df600c836134ac565b91506142ea826142a9565b602082019050919050565b6000602082019050818103600083015261430e816142d2565b9050919050565b7f5154595f5a45524f000000000000000000000000000000000000000000000000600082015250565b600061434b6008836134ac565b915061435682614315565b602082019050919050565b6000602082019050818103600083015261437a8161433e565b9050919050565b7f494e414354495645000000000000000000000000000000000000000000000000600082015250565b60006143b76008836134ac565b91506143c282614381565b602082019050919050565b600060208201905081810360008301526143e6816143aa565b9050919050565b7f4e4f5f53544f434b000000000000000000000000000000000000000000000000600082015250565b60006144236008836134ac565b915061442e826143ed565b602082019050919050565b6000602082019050818103600083015261445281614416565b9050919050565b600061446482612fad565b915061446f83612fad565b925082820261447d81612fad565b9150828204841483151761449457614493613a66565b5b5092915050565b7f4241445f5041594d454e54000000000000000000000000000000000000000000600082015250565b60006144d1600b836134ac565b91506144dc8261449b565b602082019050919050565b60006020820190508181036000830152614500816144c4565b9050919050565b7f4e487b7100000000000000000000000000000000000000000000000000000000600052603260045260246000fd5b7f4241445f41444452000000000000000000000000000000000000000000000000600082015250565b600061456c6008836134ac565b915061457782614536565b602082019050919050565b6000602082019050818103600083015261459b8161455f565b9050919050565b60006145bd6145b86145b3846131f1565b613f19565b6131f1565b9050919050565b60006145cf826145a2565b9050919050565b60006145e1826145c4565b9050919050565b6145f1816145d6565b82525050565b600060208201905061460c60008301846145e8565b92915050565b7f444f435f45584953545300000000000000000000000000000000000000000000600082015250565b6000614648600a836134ac565b915061465382614612565b602082019050919050565b600060208201905081810360008301526146778161463b565b9050919050565b60006060820190506146936000830186613088565b6146a06020830185613088565b6146ad6040830184613088565b949350505050565b7f50524943455f5a45524f00000000000000000000000000000000000000000000600082015250565b60006146eb600a836134ac565b91506146f6826146b5565b602082019050919050565b6000602082019050818103600083015261471a816146de565b905091905056fea2646970667358221220b6b8872301e5246db804a16a1c96143ff1e874788b842b3d442b69d830cee0b564736f6c63430008140033",
  "linkReferences": {},
  "deployedLinkReferences": {}
}