{
  "_format": "hh-sol-artifact-1",
  "contractName": "HealthcareLite",
  "sourceName": "contracts/Healthcare.sol",
  "abi": [
    {
      "inputs": [],
      "stateMutability": "nonpayable",
      "type": "constructor"
    },
    {
      "anonymous": false,
      "inputs": [
        {
          "indexed": false,
          "internalType": "address",
          "name": "newAdmin",
          "type": "address"
        }
      ],
      "name": "AdminUpdated",
      "type": "event"
    },
    {
      "anonymous": false,
      "inputs": [
        {
          "indexed": false,
          "internalType": "uint256",
          "name": "id",
          "type": "uint256"
        },
        {
          "indexed": false,
          "internalType": "uint256",
          "name": "patientId",
          "type": "uint256"
        },
        {
          "indexed": false,
          "internalType": "uint256",
          "name": "doctorId",
          "type": "uint256"
        },
        {
          "indexed": false,
          "internalType": "uint256",
          "name": "startAt",
          "type": "uint256"
        }
      ],
      "name": "AppointmentBooked",
      "type": "event"
    },
    {
      "anonymous": false,
      "inputs": [
        {
          "indexed": false,
          "internalType": "uint256",
          "name": "id",
          "type": "uint256"
        }
      ],
      "name": "AppointmentCompleted",
      "type": "event"
    },
    {
      "anonymous": false,
      "inputs": [
        {
          "indexed": false,
          "internalType": "uint256",
          "name": "id",
          "type": "uint256"
        },
        {
          "indexed": false,
          "internalType": "bool",
          "name": "approved",
          "type": "bool"
        }
      ],
      "name": "DoctorApproved",
      "type": "event"
    },
    {
      "anonymous": false,
      "inputs": [
        {
          "indexed": false,
          "internalType": "uint256",
          "name": "id",
          "type": "uint256"
        },
        {
          "indexed": false,
          "internalType": "address",
          "name": "account",
          "type": "address"
        }
      ],
      "name": "DoctorRegistered",
      "type": "event"
    },
    {
      "anonymous": false,
      "inputs": [
        {
          "indexed": false,
          "internalType": "uint256",
          "name": "doctorReg",
          "type": "uint256"
        },
        {
          "indexed": false,
          "internalType": "uint256",
          "name": "patientReg",
          "type": "uint256"
        },
        {
          "indexed": false,
          "internalType": "uint256",
          "name": "apptFee",
          "type": "uint256"
        }
      ],
      "name": "FeesUpdated",
      "type": "event"
    },
    {
      "anonymous": false,
      "inputs": [
        {
          "indexed": false,
          "internalType": "uint256",
          "name": "id",
          "type": "uint256"
        },
        {
          "indexed": false,
          "internalType": "bool",
          "name": "active",
          "type": "bool"
        }
      ],
      "name": "MedicineActive",
      "type": "event"
    },
    {
      "anonymous": false,
      "inputs": [
        {
          "indexed": false,
          "internalType": "uint256",
          "name": "id",
          "type": "uint256"
        },
        {
          "indexed": false,
          "internalType": "uint256",
          "name": "priceWei",
          "type": "uint256"
        },
        {
          "indexed": false,
          "internalType": "uint256",
          "name": "stock",
          "type": "uint256"
        }
      ],
      "name": "MedicineAdded",
      "type": "event"
    },
    {
      "anonymous": false,
      "inputs": [
        {
          "indexed": false,
          "internalType": "uint256",
          "name": "patientId",
          "type": "uint256"
        },
        {
          "indexed": false,
          "internalType": "uint256",
          "name": "medicineId",
          "type": "uint256"
        },
        {
          "indexed": false,
          "internalType": "uint256",
          "name": "qty",
          "type": "uint256"
        },
        {
          "indexed": false,
          "internalType": "uint256",
          "name": "paidWei",
          "type": "uint256"
        }
      ],
      "name": "MedicineBought",
      "type": "event"
    },
    {
      "anonymous": false,
      "inputs": [
        {
          "indexed": false,
          "internalType": "uint256",
          "name": "id",
          "type": "uint256"
        },
        {
          "indexed": false,
          "internalType": "uint256",
          "name": "medicineId",
          "type": "uint256"
        },
        {
          "indexed": false,
          "internalType": "uint256",
          "name": "patientId",
          "type": "uint256"
        },
        {
          "indexed": false,
          "internalType": "uint256",
          "name": "doctorId",
          "type": "uint256"
        }
      ],
      "name": "MedicinePrescribed",
      "type": "event"
    },
    {
      "anonymous": false,
      "inputs": [
        {
          "indexed": false,
          "internalType": "uint256",
          "name": "id",
          "type": "uint256"
        },
        {
          "indexed": false,
          "internalType": "uint256",
          "name": "priceWei",
          "type": "uint256"
        }
      ],
      "name": "MedicinePrice",
      "type": "event"
    },
    {
      "anonymous": false,
      "inputs": [
        {
          "indexed": false,
          "internalType": "uint256",
          "name": "id",
          "type": "uint256"
        },
        {
          "indexed": false,
          "internalType": "uint256",
          "name": "stock",
          "type": "uint256"
        }
      ],
      "name": "MedicineStock",
      "type": "event"
    },
    {
      "anonymous": false,
      "inputs": [
        {
          "indexed": false,
          "internalType": "uint256",
          "name": "id",
          "type": "uint256"
        },
        {
          "indexed": false,
          "internalType": "address",
          "name": "account",
          "type": "address"
        }
      ],
      "name": "PatientRegistered",
      "type": "event"
    },
    {
      "inputs": [
        {
          "internalType": "string",
          "name": "ipfs",
          "type": "string"
        },
        {
          "internalType": "uint256",
          "name": "priceWei",
          "type": "uint256"
        },
        {
          "internalType": "uint256",
          "name": "stock",
          "type": "uint256"
        }
      ],
      "name": "addMedicine",
      "outputs": [],
      "stateMutability": "nonpayable",
      "type": "function"
    },
    {
      "inputs": [],
      "name": "admin",
      "outputs": [
        {
          "internalType": "address payable",
          "name": "",
          "type": "address"
        }
      ],
      "stateMutability": "view",
      "type": "function"
    },
    {
      "inputs": [],
      "name": "appointmentCount",
      "outputs": [
        {
          "internalType": "uint256",
          "name": "",
          "type": "uint256"
        }
      ],
      "stateMutability": "view",
      "type": "function"
    },
    {
      "inputs": [],
      "name": "appointmentFeeWei",
      "outputs": [
        {
          "internalType": "uint256",
          "name": "",
          "type": "uint256"
        }
      ],
      "stateMutability": "view",
      "type": "function"
    },
    {
      "inputs": [
        {
          "internalType": "uint256",
          "name": "",
          "type": "uint256"
        }
      ],
      "name": "appointments",
      "outputs": [
        {
          "internalType": "uint256",
          "name": "id",
          "type": "uint256"
        },
        {
          "internalType": "uint256",
          "name": "patientId",
          "type": "uint256"
        },
        {
          "internalType": "uint256",
          "name": "doctorId",
          "type": "uint256"
        },
        {
          "internalType": "uint256",
          "name": "startAt",
          "type": "uint256"
        },
        {
          "internalType": "bool",
          "name": "open",
          "type": "bool"
        }
      ],
      "stateMutability": "view",
      "type": "function"
    },
    {
      "inputs": [
        {
          "internalType": "uint256",
          "name": "id",
          "type": "uint256"
        },
        {
          "internalType": "bool",
          "name": "value",
          "type": "bool"
        }
      ],
      "name": "approveDoctor",
      "outputs": [],
      "stateMutability": "nonpayable",
      "type": "function"
    },
    {
      "inputs": [
        {
          "internalType": "uint256",
          "name": "patientId",
          "type": "uint256"
        },
        {
          "internalType": "uint256",
          "name": "doctorId",
          "type": "uint256"
        },
        {
          "internalType": "uint256",
          "name": "startAt",
          "type": "uint256"
        }
      ],
      "name": "bookAppointment",
      "outputs": [],
      "stateMutability": "payable",
      "type": "function"
    },
    {
      "inputs": [
        {
          "internalType": "uint256",
          "name": "patientId",
          "type": "uint256"
        },
        {
          "internalType": "uint256",
          "name": "medicineId",
          "type": "uint256"
        },
        {
          "internalType": "uint256",
          "name": "qty",
          "type": "uint256"
        }
      ],
      "name": "buyMedicine",
      "outputs": [],
      "stateMutability": "payable",
      "type": "function"
    },
    {
      "inputs": [
        {
          "internalType": "uint256",
          "name": "appointmentId",
          "type": "uint256"
        }
      ],
      "name": "completeAppointment",
      "outputs": [],
      "stateMutability": "nonpayable",
      "type": "function"
    },
    {
      "inputs": [],
      "name": "doctorCount",
      "outputs": [
        {
          "internalType": "uint256",
          "name": "",
          "type": "uint256"
        }
      ],
      "stateMutability": "view",
      "type": "function"
    },
    {
      "inputs": [
        {
          "internalType": "address",
          "name": "",
          "type": "address"
        }
      ],
      "name": "doctorIdByAddress",
      "outputs": [
        {
          "internalType": "uint256",
          "name": "",
          "type": "uint256"
        }
      ],
      "stateMutability": "view",
      "type": "function"
    },
    {
      "inputs": [],
      "name": "doctorRegFeeWei",
      "outputs": [
        {
          "internalType": "uint256",
          "name": "",
          "type": "uint256"
        }
      ],
      "stateMutability": "view",
      "type": "function"
    },
    {
      "inputs": [
        {
          "internalType": "uint256",
          "name": "",
          "type": "uint256"
        }
      ],
      "name": "doctors",
      "outputs": [
        {
          "internalType": "uint256",
          "name": "id",
          "type": "uint256"
        },
        {
          "internalType": "string",
          "name": "ipfs",
          "type": "string"
        },
        {
          "internalType": "address",
          "name": "account",
          "type": "address"
        },
        {
          "internalType": "bool",
          "name": "approved",
          "type": "bool"
        },
        {
          "internalType": "uint256",
          "name": "appointments",
          "type": "uint256"
        },
        {
          "internalType": "uint256",
          "name": "successes",
          "type": "uint256"
        }
      ],
      "stateMutability": "view",
      "type": "function"
    },
    {
      "inputs": [
        {
          "internalType": "uint256",
          "name": "doctorId",
          "type": "uint256"
        }
      ],
      "name": "getAppointmentsByDoctor",
      "outputs": [
        {
          "components": [
            {
              "internalType": "uint256",
              "name": "id",
              "type": "uint256"
            },
            {
              "internalType": "uint256",
              "name": "patientId",
              "type": "uint256"
            },
            {
              "internalType": "uint256",
              "name": "doctorId",
              "type": "uint256"
            },
            {
              "internalType": "uint256",
              "name": "startAt",
              "type": "uint256"
            },
            {
              "internalType": "bool",
              "name": "open",
              "type": "bool"
            }
          ],
          "internalType": "struct HealthcareLite.Appointment[]",
          "name": "",
          "type": "tuple[]"
        }
      ],
      "stateMutability": "view",
      "type": "function"
    },
    {
      "inputs": [
        {
          "internalType": "uint256",
          "name": "patientId",
          "type": "uint256"
        }
      ],
      "name": "getAppointmentsByPatient",
      "outputs": [
        {
          "components": [
            {
              "internalType": "uint256",
              "name": "id",
              "type": "uint256"
            },
            {
              "internalType": "uint256",
              "name": "patientId",
              "type": "uint256"
            },
            {
              "internalType": "uint256",
              "name": "doctorId",
              "type": "uint256"
            },
            {
              "internalType": "uint256",
              "name": "startAt",
              "type": "uint256"
            },
            {
              "internalType": "bool",
              "name": "open",
              "type": "bool"
            }
          ],
          "internalType": "struct HealthcareLite.Appointment[]",
          "name": "",
          "type": "tuple[]"
        }
      ],
      "stateMutability": "view",
      "type": "function"
    },
    {
      "inputs": [
        {
          "internalType": "address",
          "name": "account",
          "type": "address"
        }
      ],
      "name": "getDoctorId",
      "outputs": [
        {
          "internalType": "uint256",
          "name": "",
          "type": "uint256"
        }
      ],
      "stateMutability": "view",
      "type": "function"
    },
    {
      "inputs": [
        {
          "internalType": "address",
          "name": "account",
          "type": "address"
        }
      ],
      "name": "getPatientId",
      "outputs": [
        {
          "internalType": "uint256",
          "name": "",
          "type": "uint256"
        }
      ],
      "stateMutability": "view",
      "type": "function"
    },
    {
      "inputs": [],
      "name": "medicineCount",
      "outputs": [
        {
          "internalType": "uint256",
          "name": "",
          "type": "uint256"
        }
      ],
      "stateMutability": "view",
      "type": "function"
    },
    {
      "inputs": [
        {
          "internalType": "uint256",
          "name": "",
          "type": "uint256"
        }
      ],
      "name": "medicines",
      "outputs": [
        {
          "internalType": "uint256",
          "name": "id",
          "type": "uint256"
        },
        {
          "internalType": "string",
          "name": "ipfs",
          "type": "string"
        },
        {
          "internalType": "uint256",
          "name": "priceWei",
          "type": "uint256"
        },
        {
          "internalType": "uint256",
          "name": "stock",
          "type": "uint256"
        },
        {
          "internalType": "bool",
          "name": "active",
          "type": "bool"
        }
      ],
      "stateMutability": "view",
      "type": "function"
    },
    {
      "inputs": [],
      "name": "patientCount",
      "outputs": [
        {
          "internalType": "uint256",
          "name": "",
          "type": "uint256"
        }
      ],
      "stateMutability": "view",
      "type": "function"
    },
    {
      "inputs": [
        {
          "internalType": "address",
          "name": "",
          "type": "address"
        }
      ],
      "name": "patientIdByAddress",
      "outputs": [
        {
          "internalType": "uint256",
          "name": "",
          "type": "uint256"
        }
      ],
      "stateMutability": "view",
      "type": "function"
    },
    {
      "inputs": [],
      "name": "patientRegFeeWei",
      "outputs": [
        {
          "internalType": "uint256",
          "name": "",
          "type": "uint256"
        }
      ],
      "stateMutability": "view",
      "type": "function"
    },
    {
      "inputs": [
        {
          "internalType": "uint256",
          "name": "",
          "type": "uint256"
        }
      ],
      "name": "patients",
      "outputs": [
        {
          "internalType": "uint256",
          "name": "id",
          "type": "uint256"
        },
        {
          "internalType": "string",
          "name": "ipfs",
          "type": "string"
        },
        {
          "internalType": "address",
          "name": "account",
          "type": "address"
        }
      ],
      "stateMutability": "view",
      "type": "function"
    },
    {
      "inputs": [
        {
          "internalType": "uint256",
          "name": "patientId",
          "type": "uint256"
        },
        {
          "internalType": "uint256",
          "name": "medicineId",
          "type": "uint256"
        }
      ],
      "name": "prescribe",
      "outputs": [],
      "stateMutability": "nonpayable",
      "type": "function"
    },
    {
      "inputs": [],
      "name": "prescriptionCount",
      "outputs": [
        {
          "internalType": "uint256",
          "name": "",
          "type": "uint256"
        }
      ],
      "stateMutability": "view",
      "type": "function"
    },
    {
      "inputs": [
        {
          "internalType": "uint256",
          "name": "",
          "type": "uint256"
        }
      ],
      "name": "prescriptions",
      "outputs": [
        {
          "internalType": "uint256",
          "name": "id",
          "type": "uint256"
        },
        {
          "internalType": "uint256",
          "name": "medicineId",
          "type": "uint256"
        },
        {
          "internalType": "uint256",
          "name": "patientId",
          "type": "uint256"
        },
        {
          "internalType": "uint256",
          "name": "doctorId",
          "type": "uint256"
        },
        {
          "internalType": "uint256",
          "name": "date",
          "type": "uint256"
        }
      ],
      "stateMutability": "view",
      "type": "function"
    },
    {
      "inputs": [
        {
          "internalType": "string",
          "name": "ipfs",
          "type": "string"
        }
      ],
      "name": "registerDoctor",
      "outputs": [],
      "stateMutability": "payable",
      "type": "function"
    },
    {
      "inputs": [
        {
          "internalType": "string",
          "name": "ipfs",
          "type": "string"
        }
      ],
      "name": "registerPatient",
      "outputs": [],
      "stateMutability": "payable",
      "type": "function"
    },
    {
      "inputs": [
        {
          "internalType": "address payable",
          "name": "_new",
          "type": "address"
        }
      ],
      "name": "setAdmin",
      "outputs": [],
      "stateMutability": "nonpayable",
      "type": "function"
    },
    {
      "inputs": [
        {
          "internalType": "uint256",
          "name": "_doctorRegFeeWei",
          "type": "uint256"
        },
        {
          "internalType": "uint256",
          "name": "_patientRegFeeWei",
          "type": "uint256"
        },
        {
          "internalType": "uint256",
          "name": "_appointmentFeeWei",
          "type": "uint256"
        }
      ],
      "name": "setFees",
      "outputs": [],
      "stateMutability": "nonpayable",
      "type": "function"
    },
    {
      "inputs": [
        {
          "internalType": "uint256",
          "name": "id",
          "type": "uint256"
        },
        {
          "internalType": "uint256",
          "name": "priceWei",
          "type": "uint256"
        }
      ],
      "name": "setMedicinePrice",
      "outputs": [],
      "stateMutability": "nonpayable",
      "type": "function"
    },
    {
      "inputs": [
        {
          "internalType": "uint256",
          "name": "id",
          "type": "uint256"
        },
        {
          "internalType": "uint256",
          "name": "stock",
          "type": "uint256"
        }
      ],
      "name": "setMedicineStock",
      "outputs": [],
      "stateMutability": "nonpayable",
      "type": "function"
    },
    {
      "inputs": [
        {
          "internalType": "uint256",
          "name": "id",
          "type": "uint256"
        }
      ],
      "name": "toggleMedicine",
      "outputs": [],
      "stateMutability": "nonpayable",
      "type": "function"
    }
  ],
  "bytecode": "0x60806040526608e1bc9bf0400060015565e35fa931a0006002556608e1bc9bf0400060035534801561003057600080fd5b50336000806101000a81548173ffffffffffffffffffffffffffffffffffffffff021916908373ffffffffffffffffffffffffffffffffffffffff160217905550614446806100806000396000f3fe6080604052600436106101ee5760003560e01c8063869c9eaf1161010d578063b99be2a8116100a0578063e508c9571161006f578063e508c95714610724578063eebc3fb21461074d578063eecd33d414610778578063f69c6995146107b5578063f851a440146107de576101ee565b8063b99be2a814610652578063b9ee69201461067d578063c85e766d146106ba578063cec10c11146106fb576101ee565b806393119a83116100dc57806393119a8314610594578063a0303c41146105d3578063ab622786146105fe578063b655849814610627576101ee565b8063869c9eaf146104f4578063875b002714610510578063897f272c1461053b5780638f09ab5b14610578576101ee565b80634095b1171161018557806357bcf3c01161015457806357bcf3c0146104215780636efb1b841461045e578063704b6c02146104a057806378522bc4146104c9576101ee565b80634095b117146103745780634c51eb141461039d5780634dafd490146103b95780635165e394146103e4576101ee565b80632604fa7b116101c15780632604fa7b146102a257806331dfc91b146102df57806334117e171461032057806337cbfb0e14610349576101ee565b806307bf751f146101f357806312dc90131461021c57806313eca4051461025d578063146e812c14610279575b600080fd5b3480156101ff57600080fd5b5061021a60048036038101906102159190612d89565b610809565b005b34801561022857600080fd5b50610243600480360381019061023e9190612dc9565b610953565b604051610254959493929190612e14565b60405180910390f35b61027760048036038101906102729190612e67565b610996565b005b34801561028557600080fd5b506102a0600480360381019061029b9190612eba565b610e01565b005b3480156102ae57600080fd5b506102c960048036038101906102c49190612f58565b6110a4565b6040516102d69190612f85565b60405180910390f35b3480156102eb57600080fd5b5061030660048036038101906103019190612dc9565b6110ed565b604051610317959493929190612fa0565b60405180910390f35b34801561032c57600080fd5b5061034760048036038101906103429190612eba565b611123565b005b34801561035557600080fd5b5061035e61125a565b60405161036b9190612f85565b60405180910390f35b34801561038057600080fd5b5061039b60048036038101906103969190612dc9565b611260565b005b6103b760048036038101906103b29190612e67565b6114cd565b005b3480156103c557600080fd5b506103ce611840565b6040516103db9190612f85565b60405180910390f35b3480156103f057600080fd5b5061040b60048036038101906104069190612dc9565b611846565b6040516104189190613128565b60405180910390f35b34801561042d57600080fd5b5061044860048036038101906104439190612f58565b6119ca565b6040516104559190612f85565b60405180910390f35b34801561046a57600080fd5b5061048560048036038101906104809190612dc9565b6119e2565b604051610497969594939291906131e9565b60405180910390f35b3480156104ac57600080fd5b506104c760048036038101906104c2919061328f565b611ad3565b005b3480156104d557600080fd5b506104de611c4a565b6040516104eb9190612f85565b60405180910390f35b61050e60048036038101906105099190613321565b611c50565b005b34801561051c57600080fd5b50610525611f96565b6040516105329190612f85565b60405180910390f35b34801561054757600080fd5b50610562600480360381019061055d9190612f58565b611f9c565b60405161056f9190612f85565b60405180910390f35b610592600480360381019061058d9190613321565b611fb4565b005b3480156105a057600080fd5b506105bb60048036038101906105b69190612dc9565b612345565b6040516105ca9392919061336e565b60405180910390f35b3480156105df57600080fd5b506105e8612417565b6040516105f59190612f85565b60405180910390f35b34801561060a57600080fd5b5061062560048036038101906106209190612dc9565b61241d565b005b34801561063357600080fd5b5061063c6125ad565b6040516106499190612f85565b60405180910390f35b34801561065e57600080fd5b506106676125b3565b6040516106749190612f85565b60405180910390f35b34801561068957600080fd5b506106a4600480360381019061069f9190612f58565b6125b9565b6040516106b19190612f85565b60405180910390f35b3480156106c657600080fd5b506106e160048036038101906106dc9190612dc9565b612602565b6040516106f29594939291906133ac565b60405180910390f35b34801561070757600080fd5b50610722600480360381019061071d9190612e67565b6126cd565b005b34801561073057600080fd5b5061074b60048036038101906107469190613406565b6127b0565b005b34801561075957600080fd5b506107626129b8565b60405161076f9190612f85565b60405180910390f35b34801561078457600080fd5b5061079f600480360381019061079a9190612dc9565b6129be565b6040516107ac9190613128565b60405180910390f35b3480156107c157600080fd5b506107dc60048036038101906107d79190612eba565b612b42565b005b3480156107ea57600080fd5b506107f3612cbc565b6040516108009190613489565b60405180910390f35b60008054906101000a900473ffffffffffffffffffffffffffffffffffffffff1673ffffffffffffffffffffffffffffffffffffffff163373ffffffffffffffffffffffffffffffffffffffff1614610897576040517f08c379a000000000000000000000000000000000000000000000000000000000815260040161088e906134f0565b60405180910390fd5b6000821180156108a957506004548211155b6108e8576040517f08c379a00000000000000000000000000000000000000000000000000000000081526004016108df9061355c565b60405180910390fd5b806009600084815260200190815260200160002060020160146101000a81548160ff0219169083151502179055507fbb4c91f31cb51718cccdf9c6a732a45ee18acb9c6505335dcc63a90794a3abff828260405161094792919061357c565b60405180910390a15050565b600c6020528060005260406000206000915090508060000154908060010154908060020154908060030154908060040160009054906101000a900460ff16905085565b601060009054906101000a900460ff16156109e6576040517f08c379a00000000000000000000000000000000000000000000000000000000081526004016109dd906135f1565b60405180910390fd5b6001601060006101000a81548160ff02191690831515021790555082600f60003373ffffffffffffffffffffffffffffffffffffffff1673ffffffffffffffffffffffffffffffffffffffff16815260200190815260200160002054148015610a50575060008314155b610a8f576040517f08c379a0000000000000000000000000000000000000000000000000000000008152600401610a869061365d565b60405180910390fd5b600082118015610aa157506004548211155b610ae0576040517f08c379a0000000000000000000000000000000000000000000000000000000008152600401610ad79061355c565b60405180910390fd5b6009600083815260200190815260200160002060020160149054906101000a900460ff16610b43576040517f08c379a0000000000000000000000000000000000000000000000000000000008152600401610b3a906136c9565b60405180910390fd5b6003543414610b87576040517f08c379a0000000000000000000000000000000000000000000000000000000008152600401610b7e90613735565b60405180910390fd5b428111610bc9576040517f08c379a0000000000000000000000000000000000000000000000000000000008152600401610bc0906137a1565b60405180910390fd5b60076000815480929190610bdc906137f0565b91905055506040518060a00160405280600754815260200184815260200183815260200182815260200160011515815250600c600060075481526020019081526020016000206000820151816000015560208201518160010155604082015181600201556060820151816003015560808201518160040160006101000a81548160ff0219169083151502179055509050506000600a34610c7c9190613867565b905060008134610c8c9190613898565b905060008054906101000a900473ffffffffffffffffffffffffffffffffffffffff1673ffffffffffffffffffffffffffffffffffffffff166108fc839081150290604051600060405180830381858888f19350505050158015610cf4573d6000803e3d6000fd5b506009600085815260200190815260200160002060020160009054906101000a900473ffffffffffffffffffffffffffffffffffffffff1673ffffffffffffffffffffffffffffffffffffffff166108fc829081150290604051600060405180830381858888f19350505050158015610d71573d6000803e3d6000fd5b506001600960008681526020019081526020016000206003016000828254610d9991906138cc565b925050819055507f1185ee7d7601fb1f9022de9897087ccb38b19f8081baea426dba6da04823aa24600754868686604051610dd79493929190613900565b60405180910390a150506000601060006101000a81548160ff021916908315150217905550505050565b6000600e60003373ffffffffffffffffffffffffffffffffffffffff1673ffffffffffffffffffffffffffffffffffffffff16815260200190815260200160002054905060008114158015610e7657506009600082815260200190815260200160002060020160149054906101000a900460ff165b610eb5576040517f08c379a0000000000000000000000000000000000000000000000000000000008152600401610eac90613991565b60405180910390fd5b600083118015610ec757506005548311155b610f06576040517f08c379a0000000000000000000000000000000000000000000000000000000008152600401610efd906139fd565b60405180910390fd5b600082118015610f1857506006548211155b610f57576040517f08c379a0000000000000000000000000000000000000000000000000000000008152600401610f4e90613a69565b60405180910390fd5b60086000815480929190610f6a906137f0565b91905055506040518060a001604052806008548152602001838152602001848152602001600e60003373ffffffffffffffffffffffffffffffffffffffff1673ffffffffffffffffffffffffffffffffffffffff16815260200190815260200160002054815260200142815250600d6000600854815260200190815260200160002060008201518160000155602082015181600101556040820151816002015560608201518160030155608082015181600401559050507f398a743fb4f7a69fd21dd4488cc639fb332b3e919f58fb25990c6f21d0025c496008548385600e60003373ffffffffffffffffffffffffffffffffffffffff1673ffffffffffffffffffffffffffffffffffffffff168152602001908152602001600020546040516110979493929190613900565b60405180910390a1505050565b6000600f60008373ffffffffffffffffffffffffffffffffffffffff1673ffffffffffffffffffffffffffffffffffffffff168152602001908152602001600020549050919050565b600d6020528060005260406000206000915090508060000154908060010154908060020154908060030154908060040154905085565b60008054906101000a900473ffffffffffffffffffffffffffffffffffffffff1673ffffffffffffffffffffffffffffffffffffffff163373ffffffffffffffffffffffffffffffffffffffff16146111b1576040517f08c379a00000000000000000000000000000000000000000000000000000000081526004016111a8906134f0565b60405180910390fd5b6000821180156111c357506006548211155b611202576040517f08c379a00000000000000000000000000000000000000000000000000000000081526004016111f990613a69565b60405180910390fd5b80600b6000848152602001908152602001600020600301819055507f0b80431c59a6a703e557666220cf7874cff81d920963b044fe811145bdd72fca828260405161124e929190613a89565b60405180910390a15050565b60015481565b6000600e60003373ffffffffffffffffffffffffffffffffffffffff1673ffffffffffffffffffffffffffffffffffffffff16815260200190815260200160002054036112e2576040517f08c379a00000000000000000000000000000000000000000000000000000000081526004016112d990613afe565b60405180910390fd5b6000811180156112f457506007548111155b611333576040517f08c379a000000000000000000000000000000000000000000000000000000000815260040161132a90613b6a565b60405180910390fd5b6000600c600083815260200190815260200160002090508060040160009054906101000a900460ff1661139b576040517f08c379a000000000000000000000000000000000000000000000000000000000815260040161139290613bd6565b60405180910390fd5b3373ffffffffffffffffffffffffffffffffffffffff16600960008360020154815260200190815260200160002060020160009054906101000a900473ffffffffffffffffffffffffffffffffffffffff1673ffffffffffffffffffffffffffffffffffffffff1614611443576040517f08c379a000000000000000000000000000000000000000000000000000000000815260040161143a90613c42565b60405180910390fd5b60008160040160006101000a81548160ff02191690831515021790555060016009600083600201548152602001908152602001600020600401600082825461148b91906138cc565b925050819055507f96f7f7d72a3fe4b137949271ceab16ab2121be2faeda69bb82794730701668ca826040516114c19190612f85565b60405180910390a15050565b601060009054906101000a900460ff161561151d576040517f08c379a0000000000000000000000000000000000000000000000000000000008152600401611514906135f1565b60405180910390fd5b6001601060006101000a81548160ff02191690831515021790555082600f60003373ffffffffffffffffffffffffffffffffffffffff1673ffffffffffffffffffffffffffffffffffffffff16815260200190815260200160002054148015611587575060008314155b6115c6576040517f08c379a00000000000000000000000000000000000000000000000000000000081526004016115bd9061365d565b60405180910390fd5b6000821180156115d857506006548211155b611617576040517f08c379a000000000000000000000000000000000000000000000000000000000815260040161160e90613a69565b60405180910390fd5b6000811161165a576040517f08c379a000000000000000000000000000000000000000000000000000000000815260040161165190613cae565b60405180910390fd5b6000600b600084815260200190815260200160002090508060040160009054906101000a900460ff166116c2576040517f08c379a00000000000000000000000000000000000000000000000000000000081526004016116b990613d1a565b60405180910390fd5b8181600301541015611709576040517f08c379a000000000000000000000000000000000000000000000000000000000815260040161170090613d86565b60405180910390fd5b600082826002015461171b9190613da6565b905080341461175f576040517f08c379a000000000000000000000000000000000000000000000000000000000815260040161175690613e34565b60405180910390fd5b828260030160008282546117739190613898565b9250508190555060008054906101000a900473ffffffffffffffffffffffffffffffffffffffff1673ffffffffffffffffffffffffffffffffffffffff166108fc349081150290604051600060405180830381858888f193505050501580156117e0573d6000803e3d6000fd5b507f70beb154b5c28449b070f7fdeb892f3505af6af3f5b39701c28a03cecba26f39858585346040516118169493929190613900565b60405180910390a150506000601060006101000a81548160ff021916908315150217905550505050565b60065481565b6060600080600190505b60075481116118985783600c60008381526020019081526020016000206001015403611885578180611881906137f0565b9250505b8080611890906137f0565b915050611850565b5060008167ffffffffffffffff8111156118b5576118b4613e54565b5b6040519080825280602002602001820160405280156118ee57816020015b6118db612ce0565b8152602001906001900390816118d35790505b509050600080600190505b60075481116119be5785600c600083815260200190815260200160002060010154036119ab57600c60008281526020019081526020016000206040518060a0016040529081600082015481526020016001820154815260200160028201548152602001600382015481526020016004820160009054906101000a900460ff16151515158152505083838061198c906137f0565b94508151811061199f5761199e613e83565b5b60200260200101819052505b80806119b6906137f0565b9150506118f9565b50819350505050919050565b600e6020528060005260406000206000915090505481565b6009602052806000526040600020600091509050806000015490806001018054611a0b90613ee1565b80601f0160208091040260200160405190810160405280929190818152602001828054611a3790613ee1565b8015611a845780601f10611a5957610100808354040283529160200191611a84565b820191906000526020600020905b815481529060010190602001808311611a6757829003601f168201915b5050505050908060020160009054906101000a900473ffffffffffffffffffffffffffffffffffffffff16908060020160149054906101000a900460ff16908060030154908060040154905086565b60008054906101000a900473ffffffffffffffffffffffffffffffffffffffff1673ffffffffffffffffffffffffffffffffffffffff163373ffffffffffffffffffffffffffffffffffffffff1614611b61576040517f08c379a0000000000000000000000000000000000000000000000000000000008152600401611b58906134f0565b60405180910390fd5b600073ffffffffffffffffffffffffffffffffffffffff168173ffffffffffffffffffffffffffffffffffffffff1603611bd0576040517f08c379a0000000000000000000000000000000000000000000000000000000008152600401611bc790613f5e565b60405180910390fd5b806000806101000a81548173ffffffffffffffffffffffffffffffffffffffff021916908373ffffffffffffffffffffffffffffffffffffffff1602179055507f54e4612788f90384e6843298d7854436f3a585b2c3831ab66abf1de63bfa6c2d81604051611c3f9190613fdd565b60405180910390a150565b60045481565b601060009054906101000a900460ff1615611ca0576040517f08c379a0000000000000000000000000000000000000000000000000000000008152600401611c97906135f1565b60405180910390fd5b6001601060006101000a81548160ff0219169083151502179055506002543414611cff576040517f08c379a0000000000000000000000000000000000000000000000000000000008152600401611cf690613735565b60405180910390fd5b6000600f60003373ffffffffffffffffffffffffffffffffffffffff1673ffffffffffffffffffffffffffffffffffffffff1681526020019081526020016000205414611d81576040517f08c379a0000000000000000000000000000000000000000000000000000000008152600401611d7890614044565b60405180910390fd5b60056000815480929190611d94906137f0565b91905055506040518060600160405280600554815260200183838080601f016020809104026020016040519081016040528093929190818152602001838380828437600081840152601f19601f8201169050808301925050505050505081526020013373ffffffffffffffffffffffffffffffffffffffff16815250600a60006005548152602001908152602001600020600082015181600001556020820151816001019081611e449190614206565b5060408201518160020160006101000a81548173ffffffffffffffffffffffffffffffffffffffff021916908373ffffffffffffffffffffffffffffffffffffffff160217905550905050600554600f60003373ffffffffffffffffffffffffffffffffffffffff1673ffffffffffffffffffffffffffffffffffffffff1681526020019081526020016000208190555060008054906101000a900473ffffffffffffffffffffffffffffffffffffffff1673ffffffffffffffffffffffffffffffffffffffff166108fc349081150290604051600060405180830381858888f19350505050158015611f3b573d6000803e3d6000fd5b507f5eac531a816ac6546a4c3edbf9748745fe74cfd5806cd8fa8a4a01b71248bf8460055433604051611f6f9291906142d8565b60405180910390a16000601060006101000a81548160ff0219169083151502179055505050565b60025481565b600f6020528060005260406000206000915090505481565b601060009054906101000a900460ff1615612004576040517f08c379a0000000000000000000000000000000000000000000000000000000008152600401611ffb906135f1565b60405180910390fd5b6001601060006101000a81548160ff0219169083151502179055506001543414612063576040517f08c379a000000000000000000000000000000000000000000000000000000000815260040161205a90613735565b60405180910390fd5b6000600e60003373ffffffffffffffffffffffffffffffffffffffff1673ffffffffffffffffffffffffffffffffffffffff16815260200190815260200160002054146120e5576040517f08c379a00000000000000000000000000000000000000000000000000000000081526004016120dc9061434d565b60405180910390fd5b600460008154809291906120f8906137f0565b91905055506040518060c00160405280600454815260200183838080601f016020809104026020016040519081016040528093929190818152602001838380828437600081840152601f19601f8201169050808301925050505050505081526020013373ffffffffffffffffffffffffffffffffffffffff1681526020016000151581526020016000815260200160008152506009600060045481526020019081526020016000206000820151816000015560208201518160010190816121bf9190614206565b5060408201518160020160006101000a81548173ffffffffffffffffffffffffffffffffffffffff021916908373ffffffffffffffffffffffffffffffffffffffff16021790555060608201518160020160146101000a81548160ff0219169083151502179055506080820151816003015560a08201518160040155905050600454600e60003373ffffffffffffffffffffffffffffffffffffffff1673ffffffffffffffffffffffffffffffffffffffff1681526020019081526020016000208190555060008054906101000a900473ffffffffffffffffffffffffffffffffffffffff1673ffffffffffffffffffffffffffffffffffffffff166108fc349081150290604051600060405180830381858888f193505050501580156122ea573d6000803e3d6000fd5b507f42c036e07d862e74381ffdc8cb61d4e0846b10e0dc32dc47fbbc0815eb4cec6a6004543360405161231e9291906142d8565b60405180910390a16000601060006101000a81548160ff0219169083151502179055505050565b600a60205280600052604060002060009150905080600001549080600101805461236e90613ee1565b80601f016020809104026020016040519081016040528092919081815260200182805461239a90613ee1565b80156123e75780601f106123bc576101008083540402835291602001916123e7565b820191906000526020600020905b8154815290600101906020018083116123ca57829003601f168201915b5050505050908060020160009054906101000a900473ffffffffffffffffffffffffffffffffffffffff16905083565b60055481565b60008054906101000a900473ffffffffffffffffffffffffffffffffffffffff1673ffffffffffffffffffffffffffffffffffffffff163373ffffffffffffffffffffffffffffffffffffffff16146124ab576040517f08c379a00000000000000000000000000000000000000000000000000000000081526004016124a2906134f0565b60405180910390fd5b6000811180156124bd57506006548111155b6124fc576040517f08c379a00000000000000000000000000000000000000000000000000000000081526004016124f390613a69565b60405180910390fd5b600b600082815260200190815260200160002060040160009054906101000a900460ff1615600b600083815260200190815260200160002060040160006101000a81548160ff0219169083151502179055507f6d6cf34d3f23c9c3323cf5bc1e14702df3e253372d7c566e39532d708e0b918381600b600084815260200190815260200160002060040160009054906101000a900460ff166040516125a292919061357c565b60405180910390a150565b60085481565b60035481565b6000600e60008373ffffffffffffffffffffffffffffffffffffffff1673ffffffffffffffffffffffffffffffffffffffff168152602001908152602001600020549050919050565b600b60205280600052604060002060009150905080600001549080600101805461262b90613ee1565b80601f016020809104026020016040519081016040528092919081815260200182805461265790613ee1565b80156126a45780601f10612679576101008083540402835291602001916126a4565b820191906000526020600020905b81548152906001019060200180831161268757829003601f168201915b5050505050908060020154908060030154908060040160009054906101000a900460ff16905085565b60008054906101000a900473ffffffffffffffffffffffffffffffffffffffff1673ffffffffffffffffffffffffffffffffffffffff163373ffffffffffffffffffffffffffffffffffffffff161461275b576040517f08c379a0000000000000000000000000000000000000000000000000000000008152600401612752906134f0565b60405180910390fd5b8260018190555081600281905550806003819055507fcf8a1e1d5f09cf3c97dbb653cd9a4d7aace9292fbc1bb8211febf2d400febbdd8383836040516127a39392919061436d565b60405180910390a1505050565b60008054906101000a900473ffffffffffffffffffffffffffffffffffffffff1673ffffffffffffffffffffffffffffffffffffffff163373ffffffffffffffffffffffffffffffffffffffff161461283e576040517f08c379a0000000000000000000000000000000000000000000000000000000008152600401612835906134f0565b60405180910390fd5b60008211612881576040517f08c379a0000000000000000000000000000000000000000000000000000000008152600401612878906143f0565b60405180910390fd5b60066000815480929190612894906137f0565b91905055506040518060a00160405280600654815260200185858080601f016020809104026020016040519081016040528093929190818152602001838380828437600081840152601f19601f82011690508083019250505050505050815260200183815260200182815260200160011515815250600b6000600654815260200190815260200160002060008201518160000155602082015181600101908161293d9190614206565b50604082015181600201556060820151816003015560808201518160040160006101000a81548160ff0219169083151502179055509050507f72666096ff561acf60bd9e20c03aec91692bc908eba4849d22a377e6a94188fd60065483836040516129aa9392919061436d565b60405180910390a150505050565b60075481565b6060600080600190505b6007548111612a105783600c600083815260200190815260200160002060020154036129fd5781806129f9906137f0565b9250505b8080612a08906137f0565b9150506129c8565b5060008167ffffffffffffffff811115612a2d57612a2c613e54565b5b604051908082528060200260200182016040528015612a6657816020015b612a53612ce0565b815260200190600190039081612a4b5790505b509050600080600190505b6007548111612b365785600c60008381526020019081526020016000206002015403612b2357600c60008281526020019081526020016000206040518060a0016040529081600082015481526020016001820154815260200160028201548152602001600382015481526020016004820160009054906101000a900460ff161515151581525050838380612b04906137f0565b945081518110612b1757612b16613e83565b5b60200260200101819052505b8080612b2e906137f0565b915050612a71565b50819350505050919050565b60008054906101000a900473ffffffffffffffffffffffffffffffffffffffff1673ffffffffffffffffffffffffffffffffffffffff163373ffffffffffffffffffffffffffffffffffffffff1614612bd0576040517f08c379a0000000000000000000000000000000000000000000000000000000008152600401612bc7906134f0565b60405180910390fd5b600082118015612be257506006548211155b612c21576040517f08c379a0000000000000000000000000000000000000000000000000000000008152600401612c1890613a69565b60405180910390fd5b60008111612c64576040517f08c379a0000000000000000000000000000000000000000000000000000000008152600401612c5b906143f0565b60405180910390fd5b80600b6000848152602001908152602001600020600201819055507f511c0fd1eb8f631757ca75c369520f2381baf7a22f1a9c683a5724546d978f2f8282604051612cb0929190613a89565b60405180910390a15050565b60008054906101000a900473ffffffffffffffffffffffffffffffffffffffff1681565b6040518060a00160405280600081526020016000815260200160008152602001600081526020016000151581525090565b600080fd5b600080fd5b6000819050919050565b612d2e81612d1b565b8114612d3957600080fd5b50565b600081359050612d4b81612d25565b92915050565b60008115159050919050565b612d6681612d51565b8114612d7157600080fd5b50565b600081359050612d8381612d5d565b92915050565b60008060408385031215612da057612d9f612d11565b5b6000612dae85828601612d3c565b9250506020612dbf85828601612d74565b9150509250929050565b600060208284031215612ddf57612dde612d11565b5b6000612ded84828501612d3c565b91505092915050565b612dff81612d1b565b82525050565b612e0e81612d51565b82525050565b600060a082019050612e296000830188612df6565b612e366020830187612df6565b612e436040830186612df6565b612e506060830185612df6565b612e5d6080830184612e05565b9695505050505050565b600080600060608486031215612e8057612e7f612d11565b5b6000612e8e86828701612d3c565b9350506020612e9f86828701612d3c565b9250506040612eb086828701612d3c565b9150509250925092565b60008060408385031215612ed157612ed0612d11565b5b6000612edf85828601612d3c565b9250506020612ef085828601612d3c565b9150509250929050565b600073ffffffffffffffffffffffffffffffffffffffff82169050919050565b6000612f2582612efa565b9050919050565b612f3581612f1a565b8114612f4057600080fd5b50565b600081359050612f5281612f2c565b92915050565b600060208284031215612f6e57612f6d612d11565b5b6000612f7c84828501612f43565b91505092915050565b6000602082019050612f9a6000830184612df6565b92915050565b600060a082019050612fb56000830188612df6565b612fc26020830187612df6565b612fcf6040830186612df6565b612fdc6060830185612df6565b612fe96080830184612df6565b9695505050505050565b600081519050919050565b600082825260208201905092915050565b6000819050602082019050919050565b61302881612d1b565b82525050565b61303781612d51565b82525050565b60a082016000820151613053600085018261301f565b506020820151613066602085018261301f565b506040820151613079604085018261301f565b50606082015161308c606085018261301f565b50608082015161309f608085018261302e565b50505050565b60006130b1838361303d565b60a08301905092915050565b6000602082019050919050565b60006130d582612ff3565b6130df8185612ffe565b93506130ea8361300f565b8060005b8381101561311b57815161310288826130a5565b975061310d836130bd565b9250506001810190506130ee565b5085935050505092915050565b6000602082019050818103600083015261314281846130ca565b905092915050565b600081519050919050565b600082825260208201905092915050565b60005b83811015613184578082015181840152602081019050613169565b60008484015250505050565b6000601f19601f8301169050919050565b60006131ac8261314a565b6131b68185613155565b93506131c6818560208601613166565b6131cf81613190565b840191505092915050565b6131e381612f1a565b82525050565b600060c0820190506131fe6000830189612df6565b818103602083015261321081886131a1565b905061321f60408301876131da565b61322c6060830186612e05565b6132396080830185612df6565b61324660a0830184612df6565b979650505050505050565b600061325c82612efa565b9050919050565b61326c81613251565b811461327757600080fd5b50565b60008135905061328981613263565b92915050565b6000602082840312156132a5576132a4612d11565b5b60006132b38482850161327a565b91505092915050565b600080fd5b600080fd5b600080fd5b60008083601f8401126132e1576132e06132bc565b5b8235905067ffffffffffffffff8111156132fe576132fd6132c1565b5b60208301915083600182028301111561331a576133196132c6565b5b9250929050565b6000806020838503121561333857613337612d11565b5b600083013567ffffffffffffffff81111561335657613355612d16565b5b613362858286016132cb565b92509250509250929050565b60006060820190506133836000830186612df6565b818103602083015261339581856131a1565b90506133a460408301846131da565b949350505050565b600060a0820190506133c16000830188612df6565b81810360208301526133d381876131a1565b90506133e26040830186612df6565b6133ef6060830185612df6565b6133fc6080830184612e05565b9695505050505050565b600080600080606085870312156134205761341f612d11565b5b600085013567ffffffffffffffff81111561343e5761343d612d16565b5b61344a878288016132cb565b9450945050602061345d87828801612d3c565b925050604061346e87828801612d3c565b91505092959194509250565b61348381613251565b82525050565b600060208201905061349e600083018461347a565b92915050565b7f41444d494e5f4f4e4c5900000000000000000000000000000000000000000000600082015250565b60006134da600a83613155565b91506134e5826134a4565b602082019050919050565b60006020820190508181036000830152613509816134cd565b9050919050565b7f4e4f5f444f430000000000000000000000000000000000000000000000000000600082015250565b6000613546600683613155565b915061355182613510565b602082019050919050565b6000602082019050818103600083015261357581613539565b9050919050565b60006040820190506135916000830185612df6565b61359e6020830184612e05565b9392505050565b7f5245454e5452414e435900000000000000000000000000000000000000000000600082015250565b60006135db600a83613155565b91506135e6826135a5565b602082019050919050565b6000602082019050818103600083015261360a816135ce565b9050919050565b7f4e4f545f50415449454e54000000000000000000000000000000000000000000600082015250565b6000613647600b83613155565b915061365282613611565b602082019050919050565b600060208201905081810360008301526136768161363a565b9050919050565b7f444f435f4e4f545f415050524f56454400000000000000000000000000000000600082015250565b60006136b3601083613155565b91506136be8261367d565b602082019050919050565b600060208201905081810360008301526136e2816136a6565b9050919050565b7f4241445f46454500000000000000000000000000000000000000000000000000600082015250565b600061371f600783613155565b915061372a826136e9565b602082019050919050565b6000602082019050818103600083015261374e81613712565b9050919050565b7f504153545f54494d450000000000000000000000000000000000000000000000600082015250565b600061378b600983613155565b915061379682613755565b602082019050919050565b600060208201905081810360008301526137ba8161377e565b9050919050565b7f4e487b7100000000000000000000000000000000000000000000000000000000600052601160045260246000fd5b60006137fb82612d1b565b91507fffffffffffffffffffffffffffffffffffffffffffffffffffffffffffffffff820361382d5761382c6137c1565b5b600182019050919050565b7f4e487b7100000000000000000000000000000000000000000000000000000000600052601260045260246000fd5b600061387282612d1b565b915061387d83612d1b565b92508261388d5761388c613838565b5b828204905092915050565b60006138a382612d1b565b91506138ae83612d1b565b92508282039050818111156138c6576138c56137c1565b5b92915050565b60006138d782612d1b565b91506138e283612d1b565b92508282019050808211156138fa576138f96137c1565b5b92915050565b60006080820190506139156000830187612df6565b6139226020830186612df6565b61392f6040830185612df6565b61393c6060830184612df6565b95945050505050565b7f415050524f5645445f444f43544f525f4f4e4c59000000000000000000000000600082015250565b600061397b601483613155565b915061398682613945565b602082019050919050565b600060208201905081810360008301526139aa8161396e565b9050919050565b7f4e4f5f5041540000000000000000000000000000000000000000000000000000600082015250565b60006139e7600683613155565b91506139f2826139b1565b602082019050919050565b60006020820190508181036000830152613a16816139da565b9050919050565b7f4e4f5f4d45440000000000000000000000000000000000000000000000000000600082015250565b6000613a53600683613155565b9150613a5e82613a1d565b602082019050919050565b60006020820190508181036000830152613a8281613a46565b9050919050565b6000604082019050613a9e6000830185612df6565b613aab6020830184612df6565b9392505050565b7f444f43544f525f4f4e4c59000000000000000000000000000000000000000000600082015250565b6000613ae8600b83613155565b9150613af382613ab2565b602082019050919050565b60006020820190508181036000830152613b1781613adb565b9050919050565b7f4e4f5f4150505400000000000000000000000000000000000000000000000000600082015250565b6000613b54600783613155565b9150613b5f82613b1e565b602082019050919050565b60006020820190508181036000830152613b8381613b47565b9050919050565b7f434c4f5345440000000000000000000000000000000000000000000000000000600082015250565b6000613bc0600683613155565b9150613bcb82613b8a565b602082019050919050565b60006020820190508181036000830152613bef81613bb3565b9050919050565b7f4e4f545f41535349474e45440000000000000000000000000000000000000000600082015250565b6000613c2c600c83613155565b9150613c3782613bf6565b602082019050919050565b60006020820190508181036000830152613c5b81613c1f565b9050919050565b7f5154595f5a45524f000000000000000000000000000000000000000000000000600082015250565b6000613c98600883613155565b9150613ca382613c62565b602082019050919050565b60006020820190508181036000830152613cc781613c8b565b9050919050565b7f494e414354495645000000000000000000000000000000000000000000000000600082015250565b6000613d04600883613155565b9150613d0f82613cce565b602082019050919050565b60006020820190508181036000830152613d3381613cf7565b9050919050565b7f4e4f5f53544f434b000000000000000000000000000000000000000000000000600082015250565b6000613d70600883613155565b9150613d7b82613d3a565b602082019050919050565b60006020820190508181036000830152613d9f81613d63565b9050919050565b6000613db182612d1b565b9150613dbc83612d1b565b9250828202613dca81612d1b565b91508282048414831517613de157613de06137c1565b5b5092915050565b7f4241445f5041594d454e54000000000000000000000000000000000000000000600082015250565b6000613e1e600b83613155565b9150613e2982613de8565b602082019050919050565b60006020820190508181036000830152613e4d81613e11565b9050919050565b7f4e487b7100000000000000000000000000000000000000000000000000000000600052604160045260246000fd5b7f4e487b7100000000000000000000000000000000000000000000000000000000600052603260045260246000fd5b7f4e487b7100000000000000000000000000000000000000000000000000000000600052602260045260246000fd5b60006002820490506001821680613ef957607f821691505b602082108103613f0c57613f0b613eb2565b5b50919050565b7f4241445f41444452000000000000000000000000000000000000000000000000600082015250565b6000613f48600883613155565b9150613f5382613f12565b602082019050919050565b60006020820190508181036000830152613f7781613f3b565b9050919050565b6000819050919050565b6000613fa3613f9e613f9984612efa565b613f7e565b612efa565b9050919050565b6000613fb582613f88565b9050919050565b6000613fc782613faa565b9050919050565b613fd781613fbc565b82525050565b6000602082019050613ff26000830184613fce565b92915050565b7f5041545f45584953545300000000000000000000000000000000000000000000600082015250565b600061402e600a83613155565b915061403982613ff8565b602082019050919050565b6000602082019050818103600083015261405d81614021565b9050919050565b60008190508160005260206000209050919050565b60006020601f8301049050919050565b600082821b905092915050565b6000600883026140c67fffffffffffffffffffffffffffffffffffffffffffffffffffffffffffffffff82614089565b6140d08683614089565b95508019841693508086168417925050509392505050565b60006141036140fe6140f984612d1b565b613f7e565b612d1b565b9050919050565b6000819050919050565b61411d836140e8565b6141316141298261410a565b848454614096565b825550505050565b600090565b614146614139565b614151818484614114565b505050565b5b818110156141755761416a60008261413e565b600181019050614157565b5050565b601f8211156141ba5761418b81614064565b61419484614079565b810160208510156141a3578190505b6141b76141af85614079565b830182614156565b50505b505050565b600082821c905092915050565b60006141dd600019846008026141bf565b1980831691505092915050565b60006141f683836141cc565b9150826002028217905092915050565b61420f8261314a565b67ffffffffffffffff81111561422857614227613e54565b5b6142328254613ee1565b61423d828285614179565b600060209050601f831160018114614270576000841561425e578287015190505b61426885826141ea565b8655506142d0565b601f19841661427e86614064565b60005b828110156142a657848901518255600182019150602085019450602081019050614281565b868310156142c357848901516142bf601f8916826141cc565b8355505b6001600288020188555050505b505050505050565b60006040820190506142ed6000830185612df6565b6142fa60208301846131da565b9392505050565b7f444f435f45584953545300000000000000000000000000000000000000000000600082015250565b6000614337600a83613155565b915061434282614301565b602082019050919050565b600060208201905081810360008301526143668161432a565b9050919050565b60006060820190506143826000830186612df6565b61438f6020830185612df6565b61439c6040830184612df6565b949350505050565b7f50524943455f5a45524f00000000000000000000000000000000000000000000600082015250565b60006143da600a83613155565b91506143e5826143a4565b602082019050919050565b60006020820190508181036000830152614409816143cd565b905091905056fea26469706673582212203ea4ba4b177bd30674636a1964379b82ce1032595beb6c11f10f8ae0c4ef851b64736f6c63430008140033",
  "linkReferences": {},
  "deployedLinkReferences": {}
}